{
  "contractName": "creatorTokenERC",
  "abi": [
    {
      "inputs": [
        {
          "internalType": "uint256",
          "name": "_fees",
          "type": "uint256"
        }
      ],
      "stateMutability": "nonpayable",
      "type": "constructor"
    },
    {
      "anonymous": false,
      "inputs": [
        {
          "indexed": true,
          "internalType": "address",
          "name": "sender",
          "type": "address"
        },
        {
          "indexed": false,
          "internalType": "address",
          "name": "token",
          "type": "address"
        }
      ],
      "name": "CreateNewToken",
      "type": "event"
    },
    {
      "anonymous": false,
      "inputs": [
        {
          "indexed": false,
          "internalType": "uint256",
          "name": "_newFees",
          "type": "uint256"
        }
      ],
      "name": "NewValueFee",
      "type": "event"
    },
    {
      "anonymous": false,
      "inputs": [
        {
          "indexed": true,
          "internalType": "address",
          "name": "previousOwner",
          "type": "address"
        },
        {
          "indexed": true,
          "internalType": "address",
          "name": "newOwner",
          "type": "address"
        }
      ],
      "name": "OwnershipTransferred",
      "type": "event"
    },
    {
      "anonymous": false,
      "inputs": [
        {
          "indexed": false,
          "internalType": "address",
          "name": "account",
          "type": "address"
        }
      ],
      "name": "Paused",
      "type": "event"
    },
    {
      "anonymous": false,
      "inputs": [
        {
          "indexed": false,
          "internalType": "address",
          "name": "account",
          "type": "address"
        }
      ],
      "name": "Unpaused",
      "type": "event"
    },
    {
      "anonymous": false,
      "inputs": [
        {
          "indexed": false,
          "internalType": "uint256",
          "name": "withdraw_",
          "type": "uint256"
        }
      ],
      "name": "WithdrawBalance",
      "type": "event"
    },
    {
      "stateMutability": "payable",
      "type": "fallback",
      "payable": true
    },
    {
      "inputs": [],
      "name": "balance",
      "outputs": [
        {
          "internalType": "uint256",
          "name": "",
          "type": "uint256"
        }
      ],
      "stateMutability": "view",
      "type": "function",
      "constant": true
    },
    {
      "inputs": [],
      "name": "getBalance",
      "outputs": [
        {
          "internalType": "uint256",
          "name": "Balance",
          "type": "uint256"
        }
      ],
      "stateMutability": "view",
      "type": "function",
      "constant": true
    },
    {
      "inputs": [],
      "name": "owner",
      "outputs": [
        {
          "internalType": "address",
          "name": "",
          "type": "address"
        }
      ],
      "stateMutability": "view",
      "type": "function",
      "constant": true
    },
    {
      "inputs": [],
      "name": "paused",
      "outputs": [
        {
          "internalType": "bool",
          "name": "",
          "type": "bool"
        }
      ],
      "stateMutability": "view",
      "type": "function",
      "constant": true
    },
    {
      "inputs": [],
      "name": "renounceOwnership",
      "outputs": [],
      "stateMutability": "nonpayable",
      "type": "function"
    },
    {
      "inputs": [],
      "name": "setPause",
      "outputs": [],
      "stateMutability": "nonpayable",
      "type": "function"
    },
    {
      "inputs": [],
      "name": "setUnpause",
      "outputs": [],
      "stateMutability": "nonpayable",
      "type": "function"
    },
    {
      "inputs": [
        {
          "internalType": "address",
          "name": "newOwner",
          "type": "address"
        }
      ],
      "name": "transferOwnership",
      "outputs": [],
      "stateMutability": "nonpayable",
      "type": "function"
    },
    {
      "inputs": [],
      "name": "withdraw",
      "outputs": [],
      "stateMutability": "nonpayable",
      "type": "function"
    },
    {
      "stateMutability": "payable",
      "type": "receive",
      "payable": true
    },
    {
      "inputs": [
        {
          "internalType": "uint256",
          "name": "_newFees",
          "type": "uint256"
        }
      ],
      "name": "setFees",
      "outputs": [],
      "stateMutability": "nonpayable",
      "type": "function"
    },
    {
      "inputs": [],
      "name": "getFees",
      "outputs": [
        {
          "internalType": "uint256",
          "name": "Fees",
          "type": "uint256"
        }
      ],
      "stateMutability": "view",
      "type": "function",
      "constant": true
    },
    {
      "inputs": [
        {
          "internalType": "string",
          "name": "_name",
          "type": "string"
        },
        {
          "internalType": "string",
          "name": "_ticker",
          "type": "string"
        },
        {
          "internalType": "uint256",
          "name": "_supply",
          "type": "uint256"
        },
        {
          "internalType": "address",
          "name": "_recipient",
          "type": "address"
        }
      ],
      "name": "createFixSupply",
      "outputs": [
        {
          "internalType": "address",
          "name": "_tokenAddress",
          "type": "address"
        }
      ],
      "stateMutability": "payable",
      "type": "function",
      "payable": true
    },
    {
      "inputs": [
        {
          "internalType": "string",
          "name": "_name",
          "type": "string"
        },
        {
          "internalType": "string",
          "name": "_ticker",
          "type": "string"
        },
        {
          "internalType": "uint256",
          "name": "_supply",
          "type": "uint256"
        },
        {
          "internalType": "address",
          "name": "_recipient",
          "type": "address"
        }
      ],
      "name": "createFixSupplyPausable",
      "outputs": [
        {
          "internalType": "address",
          "name": "_tokenAddress",
          "type": "address"
        }
      ],
      "stateMutability": "payable",
      "type": "function",
      "payable": true
    },
    {
      "inputs": [
        {
          "internalType": "string",
          "name": "_name",
          "type": "string"
        },
        {
          "internalType": "string",
          "name": "_ticker",
          "type": "string"
        },
        {
          "internalType": "uint256",
          "name": "_supply",
          "type": "uint256"
        },
        {
          "internalType": "address",
          "name": "_recipient",
          "type": "address"
        }
      ],
      "name": "createVariableSupply",
      "outputs": [
        {
          "internalType": "address",
          "name": "_tokenAddress",
          "type": "address"
        }
      ],
      "stateMutability": "payable",
      "type": "function",
      "payable": true
    },
    {
      "inputs": [
        {
          "internalType": "string",
          "name": "_name",
          "type": "string"
        },
        {
          "internalType": "string",
          "name": "_ticker",
          "type": "string"
        },
        {
          "internalType": "uint256",
          "name": "_supply",
          "type": "uint256"
        },
        {
          "internalType": "address",
          "name": "_recipient",
          "type": "address"
        }
      ],
      "name": "createVariableSupplyPausable",
      "outputs": [
        {
          "internalType": "address",
          "name": "_tokenAddress",
          "type": "address"
        }
      ],
      "stateMutability": "payable",
      "type": "function",
      "payable": true
    }
  ],
  "bytecode": "0x608060405234801561001057600080fd5b506040516118fe3803806118fe83398101604081905261002f9161009e565b6100383361004e565b600180556002805460ff191690556004556100b7565b600080546001600160a01b038381166001600160a01b0319831681178455604051919092169283917f8be0079c531659141344cd1fd0a4f28419497f9722a3daafe3b4186f6b6457e09190a35050565b6000602082840312156100b057600080fd5b5051919050565b611838806100c66000396000f3fe608060405260043610620000f35760003560e01c80635c975abb116200008f578063b69ef8a8116200005d578063b69ef8a814620001fc578063d431b1ac1462000214578063db8d55f1146200022c578063f2fde38b146200024357005b80635c975abb1462000187578063715018a614620001ac578063848cb5c614620001c45780638da5cb5b14620001dc57005b80633ccfd60b11620000cd5780633ccfd60b146200014a5780633d18678e1462000162578063508ee9e314620000f557806355f6cf4f14620000f557005b8063067c587b14620000f557806312065fe0146200012957806326b2394114620000f557005b005b6200010c62000106366004620008a2565b6200026a565b6040516001600160a01b0390911681526020015b60405180910390f35b3480156200013657600080fd5b506003545b60405190815260200162000120565b3480156200015757600080fd5b50620000f36200034d565b3480156200016f57600080fd5b50620000f36200018136600462000929565b62000361565b3480156200019457600080fd5b5060025460ff16604051901515815260200162000120565b348015620001b957600080fd5b50620000f3620003ab565b348015620001d157600080fd5b50620000f3620003c1565b348015620001e957600080fd5b506000546001600160a01b03166200010c565b3480156200020957600080fd5b506200013b60035481565b3480156200022157600080fd5b50620000f3620003d5565b3480156200023957600080fd5b506004546200013b565b3480156200025057600080fd5b50620000f36200026236600462000943565b620003e9565b565b60006200027662000468565b62000280620004c3565b6004543414620002d05760405162461bcd60e51b815260206004820152601660248201527514185e585b595b9d081999595cc81a5cc819985a5b1b60521b60448201526064015b60405180910390fd5b60045460036000828254620002e6919062000968565b90915550620002fa9050858585856200050b565b6040516001600160a01b038216815290915033907f8912a674b22f9fd1ed789817e948b74d3007ae436a6e4fcdd80322a3973bfda59060200160405180910390a26200034560018055565b949350505050565b6200035762000557565b62000268620005b3565b6200036b62000557565b6200037581600455565b6040518181527f6143bd3e5a66e3d454b2ac106e61f4ed6994f8ae7831cb517fe4f6c6d89ab9329060200160405180910390a150565b620003b562000557565b6200026860006200069d565b620003cb62000557565b62000268620006ed565b620003df62000557565b6200026862000741565b620003f362000557565b6001600160a01b0381166200045a5760405162461bcd60e51b815260206004820152602660248201527f4f776e61626c653a206e6577206f776e657220697320746865207a65726f206160448201526564647265737360d01b6064820152608401620002c7565b62000465816200069d565b50565b600260015403620004bc5760405162461bcd60e51b815260206004820152601f60248201527f5265656e7472616e637947756172643a207265656e7472616e742063616c6c006044820152606401620002c7565b6002600155565b60025460ff1615620002685760405162461bcd60e51b815260206004820152601060248201526f14185d5cd8589b194e881c185d5cd95960821b6044820152606401620002c7565b600080858585856040516200052090620007cc565b6200052f9493929190620009d8565b604051809103906000f0801580156200054c573d6000803e3d6000fd5b509695505050505050565b6000546001600160a01b03163314620002685760405162461bcd60e51b815260206004820181905260248201527f4f776e61626c653a2063616c6c6572206973206e6f7420746865206f776e65726044820152606401620002c7565b6003805460009182905590620005d16000546001600160a01b031690565b6001600160a01b03168260405160006040518083038185875af1925050503d80600081146200061d576040519150601f19603f3d011682016040523d82523d6000602084013e62000622565b606091505b5050905080620006665760405162461bcd60e51b815260206004820152600e60248201526d15da5d1a191c985dc819985a5b1b60921b6044820152606401620002c7565b6040518281527f5f5cb80d5302aa1a394a4eaaf93ab1082109e671bee9d6889f9d6f60decb68cd9060200160405180910390a15050565b600080546001600160a01b038381166001600160a01b0319831681178455604051919092169283917f8be0079c531659141344cd1fd0a4f28419497f9722a3daafe3b4186f6b6457e09190a35050565b620006f762000781565b6002805460ff191690557f5db9ee0a495bf2e6ff9c91a7834c1ba4fdd244a5e8aa4e537bd38aeae4b073aa335b6040516001600160a01b03909116815260200160405180910390a1565b6200074b620004c3565b6002805460ff191660011790557f62e78cea01bee320cd4e420270b5ea74000d11b0c9f74754ebdbfc544b05a258620007243390565b60025460ff16620002685760405162461bcd60e51b815260206004820152601460248201527314185d5cd8589b194e881b9bdd081c185d5cd95960621b6044820152606401620002c7565b610ddf8062000a2483390190565b634e487b7160e01b600052604160045260246000fd5b600082601f8301126200080257600080fd5b813567ffffffffffffffff80821115620008205762000820620007da565b604051601f8301601f19908116603f011681019082821181831017156200084b576200084b620007da565b816040528381528660208588010111156200086557600080fd5b836020870160208301376000602085830101528094505050505092915050565b80356001600160a01b03811681146200089d57600080fd5b919050565b60008060008060808587031215620008b957600080fd5b843567ffffffffffffffff80821115620008d257600080fd5b620008e088838901620007f0565b95506020870135915080821115620008f757600080fd5b506200090687828801620007f0565b935050604085013591506200091e6060860162000885565b905092959194509250565b6000602082840312156200093c57600080fd5b5035919050565b6000602082840312156200095657600080fd5b620009618262000885565b9392505050565b808201808211156200098a57634e487b7160e01b600052601160045260246000fd5b92915050565b6000815180845260005b81811015620009b8576020818501810151868301820152016200099a565b506000602082860101526020601f19601f83011685010191505092915050565b608081526000620009ed608083018762000990565b828103602084015262000a01818762000990565b604084019590955250506001600160a01b03919091166060909101529291505056fe60806040523480156200001157600080fd5b5060405162000ddf38038062000ddf833981016040819052620000349162000229565b838360036200004483826200034c565b5060046200005382826200034c565b5050506200008a816200006b6200009460201b60201c565b6200007890600a6200052d565b62000084908562000545565b62000099565b505050506200057d565b601290565b6001600160a01b038216620000f45760405162461bcd60e51b815260206004820152601f60248201527f45524332303a206d696e7420746f20746865207a65726f206164647265737300604482015260640160405180910390fd5b806002600082825462000108919062000567565b90915550506001600160a01b038216600081815260208181526040808320805486019055518481527fddf252ad1be2c89b69c2b068fc378daa952ba7f163c4a11628f55a4df523b3ef910160405180910390a35050565b505050565b634e487b7160e01b600052604160045260246000fd5b600082601f8301126200018c57600080fd5b81516001600160401b0380821115620001a957620001a962000164565b604051601f8301601f19908116603f01168101908282118183101715620001d457620001d462000164565b81604052838152602092508683858801011115620001f157600080fd5b600091505b83821015620002155785820183015181830184015290820190620001f6565b600093810190920192909252949350505050565b600080600080608085870312156200024057600080fd5b84516001600160401b03808211156200025857600080fd5b62000266888389016200017a565b955060208701519150808211156200027d57600080fd5b506200028c878288016200017a565b60408701516060880151919550935090506001600160a01b0381168114620002b357600080fd5b939692955090935050565b600181811c90821680620002d357607f821691505b602082108103620002f457634e487b7160e01b600052602260045260246000fd5b50919050565b601f8211156200015f57600081815260208120601f850160051c81016020861015620003235750805b601f850160051c820191505b8181101562000344578281556001016200032f565b505050505050565b81516001600160401b0381111562000368576200036862000164565b6200038081620003798454620002be565b84620002fa565b602080601f831160018114620003b857600084156200039f5750858301515b600019600386901b1c1916600185901b17855562000344565b600085815260208120601f198616915b82811015620003e957888601518255948401946001909101908401620003c8565b5085821015620004085787850151600019600388901b60f8161c191681555b5050505050600190811b01905550565b634e487b7160e01b600052601160045260246000fd5b600181815b808511156200046f57816000190482111562000453576200045362000418565b808516156200046157918102915b93841c939080029062000433565b509250929050565b600082620004885750600162000527565b81620004975750600062000527565b8160018114620004b05760028114620004bb57620004db565b600191505062000527565b60ff841115620004cf57620004cf62000418565b50506001821b62000527565b5060208310610133831016604e8410600b841016171562000500575081810a62000527565b6200050c83836200042e565b806000190482111562000523576200052362000418565b0290505b92915050565b60006200053e60ff84168362000477565b9392505050565b600081600019048311821515161562000562576200056262000418565b500290565b8082018082111562000527576200052762000418565b610852806200058d6000396000f3fe608060405234801561001057600080fd5b50600436106100a95760003560e01c80633950935111610071578063395093511461012357806370a082311461013657806395d89b411461015f578063a457c2d714610167578063a9059cbb1461017a578063dd62ed3e1461018d57600080fd5b806306fdde03146100ae578063095ea7b3146100cc57806318160ddd146100ef57806323b872dd14610101578063313ce56714610114575b600080fd5b6100b66101a0565b6040516100c3919061069c565b60405180910390f35b6100df6100da366004610706565b610232565b60405190151581526020016100c3565b6002545b6040519081526020016100c3565b6100df61010f366004610730565b61024c565b604051601281526020016100c3565b6100df610131366004610706565b610270565b6100f361014436600461076c565b6001600160a01b031660009081526020819052604090205490565b6100b6610292565b6100df610175366004610706565b6102a1565b6100df610188366004610706565b610321565b6100f361019b36600461078e565b61032f565b6060600380546101af906107c1565b80601f01602080910402602001604051908101604052809291908181526020018280546101db906107c1565b80156102285780601f106101fd57610100808354040283529160200191610228565b820191906000526020600020905b81548152906001019060200180831161020b57829003601f168201915b5050505050905090565b60003361024081858561035a565b60019150505b92915050565b60003361025a85828561047e565b6102658585856104f8565b506001949350505050565b600033610240818585610283838361032f565b61028d91906107fb565b61035a565b6060600480546101af906107c1565b600033816102af828661032f565b9050838110156103145760405162461bcd60e51b815260206004820152602560248201527f45524332303a2064656372656173656420616c6c6f77616e63652062656c6f77604482015264207a65726f60d81b60648201526084015b60405180910390fd5b610265828686840361035a565b6000336102408185856104f8565b6001600160a01b03918216600090815260016020908152604080832093909416825291909152205490565b6001600160a01b0383166103bc5760405162461bcd60e51b8152602060048201526024808201527f45524332303a20617070726f76652066726f6d20746865207a65726f206164646044820152637265737360e01b606482015260840161030b565b6001600160a01b03821661041d5760405162461bcd60e51b815260206004820152602260248201527f45524332303a20617070726f766520746f20746865207a65726f206164647265604482015261737360f01b606482015260840161030b565b6001600160a01b0383811660008181526001602090815260408083209487168084529482529182902085905590518481527f8c5be1e5ebec7d5bd14f71427d1e84f3dd0314c0f7b2291e5b200ac8c7c3b925910160405180910390a3505050565b600061048a848461032f565b905060001981146104f257818110156104e55760405162461bcd60e51b815260206004820152601d60248201527f45524332303a20696e73756666696369656e7420616c6c6f77616e6365000000604482015260640161030b565b6104f2848484840361035a565b50505050565b6001600160a01b03831661055c5760405162461bcd60e51b815260206004820152602560248201527f45524332303a207472616e736665722066726f6d20746865207a65726f206164604482015264647265737360d81b606482015260840161030b565b6001600160a01b0382166105be5760405162461bcd60e51b815260206004820152602360248201527f45524332303a207472616e7366657220746f20746865207a65726f206164647260448201526265737360e81b606482015260840161030b565b6001600160a01b038316600090815260208190526040902054818110156106365760405162461bcd60e51b815260206004820152602660248201527f45524332303a207472616e7366657220616d6f756e7420657863656564732062604482015265616c616e636560d01b606482015260840161030b565b6001600160a01b03848116600081815260208181526040808320878703905593871680835291849020805487019055925185815290927fddf252ad1be2c89b69c2b068fc378daa952ba7f163c4a11628f55a4df523b3ef910160405180910390a36104f2565b600060208083528351808285015260005b818110156106c9578581018301518582016040015282016106ad565b506000604082860101526040601f19601f8301168501019250505092915050565b80356001600160a01b038116811461070157600080fd5b919050565b6000806040838503121561071957600080fd5b610722836106ea565b946020939093013593505050565b60008060006060848603121561074557600080fd5b61074e846106ea565b925061075c602085016106ea565b9150604084013590509250925092565b60006020828403121561077e57600080fd5b610787826106ea565b9392505050565b600080604083850312156107a157600080fd5b6107aa836106ea565b91506107b8602084016106ea565b90509250929050565b600181811c908216806107d557607f821691505b6020821081036107f557634e487b7160e01b600052602260045260246000fd5b50919050565b8082018082111561024657634e487b7160e01b600052601160045260246000fdfea2646970667358221220540dfe4aa904e9b8f1b2a900cd33554543a541e346b23cc94b944f60eb55f1a764736f6c63430008100033a26469706673582212203d464fa4c7b8def55a4165314ac1def1c21417f78035bf02b02582b57a53b42864736f6c63430008100033",
  "immutableReferences": {},
  "source": "// SPDX-License-Identifier: Leluk\npragma solidity ^0.8.7;\n\nimport './coreFunction.sol';\nimport \"./erc20FixSupply.sol\";\nimport \"./erc20VariableSupply.sol\";\nimport \"./erc20FixSupplyPausable.sol\";\nimport \"./erc20VariableSupplyPausable.sol\";\nimport \"@openzeppelin/contracts/access/Ownable.sol\";\nimport \"@openzeppelin/contracts/security/ReentrancyGuard.sol\";\nimport \"@openzeppelin/contracts/security/Pausable.sol\";\n\n\ncontract creatorTokenERC is creatorTokenCoreFunction {\n    uint256 private fees;\n\n    constructor(uint256 _fees) {\n        fees = _fees;\n    }\n\n    event CreateNewToken(address indexed sender, address token);\n\n\n\n    function setFees(uint256 _newFees) external onlyOwner {\n        _setFees(_newFees);\n        emit NewValueFee(_newFees);\n    }\n\n  \n\n    function getFees() public view returns (uint256 Fees) {\n        Fees = fees;\n    }\n\n \n\n    function createFixSupply(\n        string memory _name,\n        string memory _ticker,\n        uint256 _supply,\n        address _recipient\n    )\n        public\n        payable\n        nonReentrant\n        whenNotPaused\n        returns (address _tokenAddress)\n    {\n        require(msg.value == fees, \"Payament fees is faill\");\n        balance += fees;\n        _tokenAddress = _createFixSupply(_name, _ticker, _supply, _recipient);\n        emit CreateNewToken(msg.sender, _tokenAddress);\n        return _tokenAddress;\n    }\n\n    function createFixSupplyPausable(\n        string memory _name,\n        string memory _ticker,\n        uint256 _supply,\n        address _recipient\n    )\n        public\n        payable\n        nonReentrant\n        whenNotPaused\n        returns (address _tokenAddress)\n    {\n        require(msg.value == fees, \"Payament fees is faill\");\n        balance += fees;\n        _tokenAddress = _createFixSupply(_name, _ticker, _supply, _recipient);\n        emit CreateNewToken(msg.sender, _tokenAddress);\n        return _tokenAddress;\n    }\n\n    function createVariableSupply(\n        string memory _name,\n        string memory _ticker,\n        uint256 _supply,\n        address _recipient\n    )\n        public\n        payable\n        nonReentrant\n        whenNotPaused\n        returns (address _tokenAddress)\n    {\n        require(msg.value == fees, \"Payament fees is faill\");\n        balance += fees;\n        _tokenAddress = _createFixSupply(_name, _ticker, _supply, _recipient);\n        emit CreateNewToken(msg.sender, _tokenAddress);\n        return _tokenAddress;\n    }\n\n    function createVariableSupplyPausable(\n        string memory _name,\n        string memory _ticker,\n        uint256 _supply,\n        address _recipient\n    )\n        public\n        payable\n        nonReentrant\n        whenNotPaused\n        returns (address _tokenAddress)\n    {\n        require(msg.value == fees, \"Payament fees is faill\");\n        balance += fees;\n        _tokenAddress = _createFixSupply(_name, _ticker, _supply, _recipient);\n        emit CreateNewToken(msg.sender, _tokenAddress);\n        return _tokenAddress;\n    }\n\n   \n\n    function _setFees(uint256 _newFees) private {\n        fees = _newFees;\n    }\n\n    function _createFixSupply(\n        string memory _name,\n        string memory _ticker,\n        uint256 _supply,\n        address _recipient\n    ) private returns (address _tokenAddress) {\n        Erc20FixSupply _erc20FixSupply = new Erc20FixSupply(\n            _name,\n            _ticker,\n            _supply,\n            _recipient\n        );\n        return _tokenAddress = address(_erc20FixSupply);\n    }\n\n    function _createFixSupplyPausable(\n        string memory _name,\n        string memory _ticker,\n        uint256 _supply,\n        address _recipient\n    ) private returns (address _tokenAddress) {\n        Erc20FixSupplyPausable _erc20FixSupplyPausable = new Erc20FixSupplyPausable(\n                _name,\n                _ticker,\n                _supply,\n                _recipient\n            );\n        return _tokenAddress = address(_erc20FixSupplyPausable);\n    }\n\n    function _createVariableSupply(\n        string memory _name,\n        string memory _ticker,\n        uint256 _supply,\n        address _recipient\n    ) private returns (address _tokenAddress) {\n        Erc20VariableSupply _erc20VariableSupply = new Erc20VariableSupply(\n            _name,\n            _ticker,\n            _supply,\n            _recipient\n        );\n        return _tokenAddress = address(_erc20VariableSupply);\n    }\n\n    function _createVariableSupplyPausable(\n        string memory _name,\n        string memory _ticker,\n        uint256 _supply,\n        address _recipient\n    ) private returns (address _tokenAddress) {\n        Erc20VariableSupplyPausable _erc20VariableSupplyPausable = new Erc20VariableSupplyPausable(\n                _name,\n                _ticker,\n                _supply,\n                _recipient\n            );\n        return _tokenAddress = address(_erc20VariableSupplyPausable);\n    }\n\n \n}\n",
  "sourcePath": "/run/media/luk/storage/Studio Dev/tutorial-react/corso next.js/esercizi/Contract personal-page/contracts/CreateERC.sol",
  "compiler": {
    "name": "solc",
    "version": "0.8.16+commit.07a7930e.Emscripten.clang"
  },
  "schemaVersion": "3.4.9",
  "updatedAt": "2022-12-18T13:15:08.725Z",
  "networkType": "ethereum",
  "devdoc": {
    "kind": "dev",
    "methods": {
      "owner()": {
        "details": "Returns the address of the current owner."
      },
      "paused()": {
        "details": "Returns true if the contract is paused, and false otherwise."
      },
      "renounceOwnership()": {
        "details": "Leaves the contract without owner. It will not be possible to call `onlyOwner` functions anymore. Can only be called by the current owner. NOTE: Renouncing ownership will leave the contract without an owner, thereby removing any functionality that is only available to the owner."
      },
      "transferOwnership(address)": {
        "details": "Transfers ownership of the contract to a new account (`newOwner`). Can only be called by the current owner."
      }
    },
    "version": 1
  },
  "userdoc": {
    "kind": "user",
    "methods": {},
    "version": 1
  }
}