{
  "contractName": "creatorTokenNFT",
  "abi": [
    {
      "inputs": [
        {
          "internalType": "uint256",
          "name": "_feesNFT",
          "type": "uint256"
        }
      ],
      "stateMutability": "nonpayable",
      "type": "constructor"
    },
    {
      "anonymous": false,
      "inputs": [
        {
          "indexed": true,
          "internalType": "address",
          "name": "user",
          "type": "address"
        },
        {
          "indexed": false,
          "internalType": "address",
          "name": "nft",
          "type": "address"
        }
      ],
      "name": "CreateNewNFT",
      "type": "event"
    },
    {
      "anonymous": false,
      "inputs": [
        {
          "indexed": false,
          "internalType": "uint256",
          "name": "_newFees",
          "type": "uint256"
        }
      ],
      "name": "NewValueFee",
      "type": "event"
    },
    {
      "anonymous": false,
      "inputs": [
        {
          "indexed": true,
          "internalType": "address",
          "name": "previousOwner",
          "type": "address"
        },
        {
          "indexed": true,
          "internalType": "address",
          "name": "newOwner",
          "type": "address"
        }
      ],
      "name": "OwnershipTransferred",
      "type": "event"
    },
    {
      "anonymous": false,
      "inputs": [
        {
          "indexed": false,
          "internalType": "address",
          "name": "account",
          "type": "address"
        }
      ],
      "name": "Paused",
      "type": "event"
    },
    {
      "anonymous": false,
      "inputs": [
        {
          "indexed": false,
          "internalType": "address",
          "name": "account",
          "type": "address"
        }
      ],
      "name": "Unpaused",
      "type": "event"
    },
    {
      "anonymous": false,
      "inputs": [
        {
          "indexed": false,
          "internalType": "uint256",
          "name": "withdraw_",
          "type": "uint256"
        }
      ],
      "name": "WithdrawBalance",
      "type": "event"
    },
    {
      "stateMutability": "payable",
      "type": "fallback",
      "payable": true
    },
    {
      "inputs": [],
      "name": "balance",
      "outputs": [
        {
          "internalType": "uint256",
          "name": "",
          "type": "uint256"
        }
      ],
      "stateMutability": "view",
      "type": "function",
      "constant": true
    },
    {
      "inputs": [],
      "name": "getBalance",
      "outputs": [
        {
          "internalType": "uint256",
          "name": "Balance",
          "type": "uint256"
        }
      ],
      "stateMutability": "view",
      "type": "function",
      "constant": true
    },
    {
      "inputs": [],
      "name": "owner",
      "outputs": [
        {
          "internalType": "address",
          "name": "",
          "type": "address"
        }
      ],
      "stateMutability": "view",
      "type": "function",
      "constant": true
    },
    {
      "inputs": [],
      "name": "paused",
      "outputs": [
        {
          "internalType": "bool",
          "name": "",
          "type": "bool"
        }
      ],
      "stateMutability": "view",
      "type": "function",
      "constant": true
    },
    {
      "inputs": [],
      "name": "renounceOwnership",
      "outputs": [],
      "stateMutability": "nonpayable",
      "type": "function"
    },
    {
      "inputs": [],
      "name": "setPause",
      "outputs": [],
      "stateMutability": "nonpayable",
      "type": "function"
    },
    {
      "inputs": [],
      "name": "setUnpause",
      "outputs": [],
      "stateMutability": "nonpayable",
      "type": "function"
    },
    {
      "inputs": [
        {
          "internalType": "address",
          "name": "newOwner",
          "type": "address"
        }
      ],
      "name": "transferOwnership",
      "outputs": [],
      "stateMutability": "nonpayable",
      "type": "function"
    },
    {
      "inputs": [],
      "name": "withdraw",
      "outputs": [],
      "stateMutability": "nonpayable",
      "type": "function"
    },
    {
      "stateMutability": "payable",
      "type": "receive",
      "payable": true
    },
    {
      "inputs": [
        {
          "internalType": "uint256",
          "name": "_newFees",
          "type": "uint256"
        }
      ],
      "name": "setFees",
      "outputs": [],
      "stateMutability": "nonpayable",
      "type": "function"
    },
    {
      "inputs": [],
      "name": "getFees",
      "outputs": [
        {
          "internalType": "uint256",
          "name": "Fees",
          "type": "uint256"
        }
      ],
      "stateMutability": "view",
      "type": "function",
      "constant": true
    },
    {
      "inputs": [
        {
          "internalType": "address",
          "name": "_owner",
          "type": "address"
        },
        {
          "internalType": "string",
          "name": "_name",
          "type": "string"
        },
        {
          "internalType": "string",
          "name": "_ticker",
          "type": "string"
        }
      ],
      "name": "createNftProStoURIburnalblePausable",
      "outputs": [
        {
          "internalType": "address",
          "name": "_NftAddress",
          "type": "address"
        }
      ],
      "stateMutability": "payable",
      "type": "function",
      "payable": true
    },
    {
      "inputs": [
        {
          "internalType": "address",
          "name": "_owner",
          "type": "address"
        },
        {
          "internalType": "string",
          "name": "_name",
          "type": "string"
        },
        {
          "internalType": "string",
          "name": "_ticker",
          "type": "string"
        }
      ],
      "name": "createNftProStoURIburnalble",
      "outputs": [
        {
          "internalType": "address",
          "name": "_NftAddress",
          "type": "address"
        }
      ],
      "stateMutability": "payable",
      "type": "function",
      "payable": true
    }
  ],
  "bytecode": "0x608060405234801561001057600080fd5b5060405161490138038061490183398101604081905261002f9161009e565b6100383361004e565b600180556002805460ff191690556004556100b7565b600080546001600160a01b038381166001600160a01b0319831681178455604051919092169283917f8be0079c531659141344cd1fd0a4f28419497f9722a3daafe3b4186f6b6457e09190a35050565b6000602082840312156100b057600080fd5b5051919050565b61483b806100c66000396000f3fe608060405260043610620000cd5760003560e01c80637485aa2b1162000083578063b69ef8a8116200005d578063b69ef8a814620001ed578063d431b1ac1462000205578063db8d55f1146200021d578063f2fde38b146200023457005b80637485aa2b146200019e578063848cb5c614620001b55780638da5cb5b14620001cd57005b806312065fe014620000cf5780632e9f22a514620000f45780633ccfd60b14620001245780633d18678e146200013c5780635c975abb1462000161578063715018a6146200018657005b005b348015620000dc57600080fd5b506003545b6040519081526020015b60405180910390f35b6200010b620001053660046200093b565b6200025b565b6040516001600160a01b039091168152602001620000eb565b3480156200013157600080fd5b50620000cd6200033c565b3480156200014957600080fd5b50620000cd6200015b366004620009b8565b62000350565b3480156200016e57600080fd5b5060025460ff166040519015158152602001620000eb565b3480156200019357600080fd5b50620000cd6200039a565b6200010b620001af3660046200093b565b620003b0565b348015620001c257600080fd5b50620000cd6200043b565b348015620001da57600080fd5b506000546001600160a01b03166200010b565b348015620001fa57600080fd5b50620000e160035481565b3480156200021257600080fd5b50620000cd6200044f565b3480156200022a57600080fd5b50600454620000e1565b3480156200024157600080fd5b50620000cd62000253366004620009d2565b62000463565b565b600062000267620004e2565b620002716200053d565b6004543414620002c15760405162461bcd60e51b815260206004820152601660248201527514185e585b595b9d081999595cc81a5cc819985a5b1b60521b60448201526064015b60405180910390fd5b60045460036000828254620002d79190620009f0565b90915550620002ea905084848462000585565b6040516001600160a01b038216815290915033907f51da525b775433d0893a3d5d606af47d917ada7da28ad3805fefa3bad42981369060200160405180910390a26200033560018055565b9392505050565b62000346620005ce565b620002596200062a565b6200035a620005ce565b6200036481600455565b6040518181527f6143bd3e5a66e3d454b2ac106e61f4ed6994f8ae7831cb517fe4f6c6d89ab9329060200160405180910390a150565b620003a4620005ce565b62000259600062000714565b6000620003bc620004e2565b620003c66200053d565b6004543414620004125760405162461bcd60e51b815260206004820152601660248201527514185e585b595b9d081999595cc81a5cc819985a5b1b60521b6044820152606401620002b8565b60045460036000828254620004289190620009f0565b90915550620002ea905084848462000764565b62000445620005ce565b6200025962000778565b62000459620005ce565b62000259620007cc565b6200046d620005ce565b6001600160a01b038116620004d45760405162461bcd60e51b815260206004820152602660248201527f4f776e61626c653a206e6577206f776e657220697320746865207a65726f206160448201526564647265737360d01b6064820152608401620002b8565b620004df8162000714565b50565b600260015403620005365760405162461bcd60e51b815260206004820152601f60248201527f5265656e7472616e637947756172643a207265656e7472616e742063616c6c006044820152606401620002b8565b6002600155565b60025460ff1615620002595760405162461bcd60e51b815260206004820152601060248201526f14185d5cd8589b194e881c185d5cd95960821b6044820152606401620002b8565b600080838386604051620005999062000857565b620005a79392919062000a60565b604051809103906000f080158015620005c4573d6000803e3d6000fd5b5095945050505050565b6000546001600160a01b03163314620002595760405162461bcd60e51b815260206004820181905260248201527f4f776e61626c653a2063616c6c6572206973206e6f7420746865206f776e65726044820152606401620002b8565b6003805460009182905590620006486000546001600160a01b031690565b6001600160a01b03168260405160006040518083038185875af1925050503d806000811462000694576040519150601f19603f3d011682016040523d82523d6000602084013e62000699565b606091505b5050905080620006dd5760405162461bcd60e51b815260206004820152600e60248201526d15da5d1a191c985dc819985a5b1b60921b6044820152606401620002b8565b6040518281527f5f5cb80d5302aa1a394a4eaaf93ab1082109e671bee9d6889f9d6f60decb68cd9060200160405180910390a15050565b600080546001600160a01b038381166001600160a01b0319831681178455604051919092169283917f8be0079c531659141344cd1fd0a4f28419497f9722a3daafe3b4186f6b6457e09190a35050565b600080838386604051620005999062000865565b620007826200080c565b6002805460ff191690557f5db9ee0a495bf2e6ff9c91a7834c1ba4fdd244a5e8aa4e537bd38aeae4b073aa335b6040516001600160a01b03909116815260200160405180910390a1565b620007d66200053d565b6002805460ff191660011790557f62e78cea01bee320cd4e420270b5ea74000d11b0c9f74754ebdbfc544b05a258620007af3390565b60025460ff16620002595760405162461bcd60e51b815260206004820152601460248201527314185d5cd8589b194e881b9bdd081c185d5cd95960621b6044820152606401620002b8565b611d1b8062000aa383390190565b61204880620027be83390190565b80356001600160a01b03811681146200088b57600080fd5b919050565b634e487b7160e01b600052604160045260246000fd5b600082601f830112620008b857600080fd5b813567ffffffffffffffff80821115620008d657620008d662000890565b604051601f8301601f19908116603f0116810190828211818310171562000901576200090162000890565b816040528381528660208588010111156200091b57600080fd5b836020870160208301376000602085830101528094505050505092915050565b6000806000606084860312156200095157600080fd5b6200095c8462000873565b9250602084013567ffffffffffffffff808211156200097a57600080fd5b6200098887838801620008a6565b935060408601359150808211156200099f57600080fd5b50620009ae86828701620008a6565b9150509250925092565b600060208284031215620009cb57600080fd5b5035919050565b600060208284031215620009e557600080fd5b620003358262000873565b8082018082111562000a1257634e487b7160e01b600052601160045260246000fd5b92915050565b6000815180845260005b8181101562000a405760208185018101518683018201520162000a22565b506000602082860101526020601f19601f83011685010191505092915050565b60608152600062000a75606083018662000a18565b828103602084015262000a89818662000a18565b91505060018060a01b038316604083015294935050505056fe60806040523480156200001157600080fd5b5060405162001d1b38038062001d1b833981016040819052620000349162000280565b828260006200004483826200039c565b5060016200005382826200039c565b505050620000706200006a6200008460201b60201c565b62000088565b6200007b81620000da565b50505062000468565b3390565b600780546001600160a01b038381166001600160a01b0319831681179093556040519116919082907f8be0079c531659141344cd1fd0a4f28419497f9722a3daafe3b4186f6b6457e090600090a35050565b620000e46200015d565b6001600160a01b0381166200014f5760405162461bcd60e51b815260206004820152602660248201527f4f776e61626c653a206e6577206f776e657220697320746865207a65726f206160448201526564647265737360d01b60648201526084015b60405180910390fd5b6200015a8162000088565b50565b6007546001600160a01b03163314620001b95760405162461bcd60e51b815260206004820181905260248201527f4f776e61626c653a2063616c6c6572206973206e6f7420746865206f776e6572604482015260640162000146565b565b634e487b7160e01b600052604160045260246000fd5b600082601f830112620001e357600080fd5b81516001600160401b0380821115620002005762000200620001bb565b604051601f8301601f19908116603f011681019082821181831017156200022b576200022b620001bb565b816040528381526020925086838588010111156200024857600080fd5b600091505b838210156200026c57858201830151818301840152908201906200024d565b600093810190920192909252949350505050565b6000806000606084860312156200029657600080fd5b83516001600160401b0380821115620002ae57600080fd5b620002bc87838801620001d1565b94506020860151915080821115620002d357600080fd5b50620002e286828701620001d1565b604086015190935090506001600160a01b03811681146200030257600080fd5b809150509250925092565b600181811c908216806200032257607f821691505b6020821081036200034357634e487b7160e01b600052602260045260246000fd5b50919050565b601f8211156200039757600081815260208120601f850160051c81016020861015620003725750805b601f850160051c820191505b8181101562000393578281556001016200037e565b5050505b505050565b81516001600160401b03811115620003b857620003b8620001bb565b620003d081620003c984546200030d565b8462000349565b602080601f831160018114620004085760008415620003ef5750858301515b600019600386901b1c1916600185901b17855562000393565b600085815260208120601f198616915b82811015620004395788860151825594840194600190910190840162000418565b5085821015620004585787850151600019600388901b60f8161c191681555b5050505050600190811b01905550565b6118a380620004786000396000f3fe608060405234801561001057600080fd5b506004361061010b5760003560e01c8063715018a6116100a2578063b88d4fde11610071578063b88d4fde1461021b578063c87b56dd1461022e578063d204c45e14610241578063e985e9c514610254578063f2fde38b1461026757600080fd5b8063715018a6146101e75780638da5cb5b146101ef57806395d89b4114610200578063a22cb4651461020857600080fd5b806323b872dd116100de57806323b872dd1461018d57806342842e0e146101a05780636352211e146101b357806370a08231146101c657600080fd5b806301ffc9a71461011057806306fdde0314610138578063081812fc1461014d578063095ea7b314610178575b600080fd5b61012361011e36600461126d565b61027a565b60405190151581526020015b60405180910390f35b6101406102cc565b60405161012f91906112da565b61016061015b3660046112ed565b61035e565b6040516001600160a01b03909116815260200161012f565b61018b610186366004611322565b610385565b005b61018b61019b36600461134c565b61049f565b61018b6101ae36600461134c565b6104d0565b6101606101c13660046112ed565b6104eb565b6101d96101d4366004611388565b61054b565b60405190815260200161012f565b61018b6105d1565b6007546001600160a01b0316610160565b6101406105e5565b61018b6102163660046113a3565b6105f4565b61018b61022936600461146b565b610603565b61014061023c3660046112ed565b61063b565b61018b61024f3660046114e7565b610646565b610123610262366004611549565b61067d565b61018b610275366004611388565b6106ab565b60006001600160e01b031982166380ac58cd60e01b14806102ab57506001600160e01b03198216635b5e139f60e01b145b806102c657506301ffc9a760e01b6001600160e01b03198316145b92915050565b6060600080546102db9061157c565b80601f01602080910402602001604051908101604052809291908181526020018280546103079061157c565b80156103545780601f1061032957610100808354040283529160200191610354565b820191906000526020600020905b81548152906001019060200180831161033757829003601f168201915b5050505050905090565b600061036982610724565b506000908152600460205260409020546001600160a01b031690565b6000610390826104eb565b9050806001600160a01b0316836001600160a01b0316036104025760405162461bcd60e51b815260206004820152602160248201527f4552433732313a20617070726f76616c20746f2063757272656e74206f776e656044820152603960f91b60648201526084015b60405180910390fd5b336001600160a01b038216148061041e575061041e813361067d565b6104905760405162461bcd60e51b815260206004820152603d60248201527f4552433732313a20617070726f76652063616c6c6572206973206e6f7420746f60448201527f6b656e206f776e6572206f7220617070726f76656420666f7220616c6c00000060648201526084016103f9565b61049a8383610783565b505050565b6104a933826107f1565b6104c55760405162461bcd60e51b81526004016103f9906115b6565b61049a838383610850565b61049a83838360405180602001604052806000815250610603565b6000818152600260205260408120546001600160a01b0316806102c65760405162461bcd60e51b8152602060048201526018602482015277115490cdcc8c4e881a5b9d985b1a59081d1bdad95b88125160421b60448201526064016103f9565b60006001600160a01b0382166105b55760405162461bcd60e51b815260206004820152602960248201527f4552433732313a2061646472657373207a65726f206973206e6f7420612076616044820152683634b21037bbb732b960b91b60648201526084016103f9565b506001600160a01b031660009081526003602052604090205490565b6105d96109c1565b6105e36000610a1b565b565b6060600180546102db9061157c565b6105ff338383610a6d565b5050565b61060d33836107f1565b6106295760405162461bcd60e51b81526004016103f9906115b6565b61063584848484610b3b565b50505050565b60606102c682610b6e565b61064e6109c1565b600061065960085490565b9050610669600880546001019055565b6106738382610c76565b61049a8183610c90565b6001600160a01b03918216600090815260056020908152604080832093909416825291909152205460ff1690565b6106b36109c1565b6001600160a01b0381166107185760405162461bcd60e51b815260206004820152602660248201527f4f776e61626c653a206e6577206f776e657220697320746865207a65726f206160448201526564647265737360d01b60648201526084016103f9565b61072181610a1b565b50565b6000818152600260205260409020546001600160a01b03166107215760405162461bcd60e51b8152602060048201526018602482015277115490cdcc8c4e881a5b9d985b1a59081d1bdad95b88125160421b60448201526064016103f9565b600081815260046020526040902080546001600160a01b0319166001600160a01b03841690811790915581906107b8826104eb565b6001600160a01b03167f8c5be1e5ebec7d5bd14f71427d1e84f3dd0314c0f7b2291e5b200ac8c7c3b92560405160405180910390a45050565b6000806107fd836104eb565b9050806001600160a01b0316846001600160a01b031614806108245750610824818561067d565b806108485750836001600160a01b031661083d8461035e565b6001600160a01b0316145b949350505050565b826001600160a01b0316610863826104eb565b6001600160a01b0316146108895760405162461bcd60e51b81526004016103f990611603565b6001600160a01b0382166108eb5760405162461bcd60e51b8152602060048201526024808201527f4552433732313a207472616e7366657220746f20746865207a65726f206164646044820152637265737360e01b60648201526084016103f9565b6108f88383836001610d23565b826001600160a01b031661090b826104eb565b6001600160a01b0316146109315760405162461bcd60e51b81526004016103f990611603565b600081815260046020908152604080832080546001600160a01b03199081169091556001600160a01b0387811680865260038552838620805460001901905590871680865283862080546001019055868652600290945282852080549092168417909155905184937fddf252ad1be2c89b69c2b068fc378daa952ba7f163c4a11628f55a4df523b3ef91a4505050565b6007546001600160a01b031633146105e35760405162461bcd60e51b815260206004820181905260248201527f4f776e61626c653a2063616c6c6572206973206e6f7420746865206f776e657260448201526064016103f9565b600780546001600160a01b038381166001600160a01b0319831681179093556040519116919082907f8be0079c531659141344cd1fd0a4f28419497f9722a3daafe3b4186f6b6457e090600090a35050565b816001600160a01b0316836001600160a01b031603610ace5760405162461bcd60e51b815260206004820152601960248201527f4552433732313a20617070726f766520746f2063616c6c65720000000000000060448201526064016103f9565b6001600160a01b03838116600081815260056020908152604080832094871680845294825291829020805460ff191686151590811790915591519182527f17307eab39ab6107e8899845ad3d59bd9653f200f220920489ca2b5937696c31910160405180910390a3505050565b610b46848484610850565b610b5284848484610dab565b6106355760405162461bcd60e51b81526004016103f990611648565b6060610b7982610724565b60008281526006602052604081208054610b929061157c565b80601f0160208091040260200160405190810160405280929190818152602001828054610bbe9061157c565b8015610c0b5780601f10610be057610100808354040283529160200191610c0b565b820191906000526020600020905b815481529060010190602001808311610bee57829003601f168201915b505050505090506000610c2960408051602081019091526000815290565b90508051600003610c3b575092915050565b815115610c6d578082604051602001610c5592919061169a565b60405160208183030381529060405292505050919050565b61084884610eac565b6105ff828260405180602001604052806000815250610f20565b6000828152600260205260409020546001600160a01b0316610d0b5760405162461bcd60e51b815260206004820152602e60248201527f45524337323155524953746f726167653a2055524920736574206f66206e6f6e60448201526d32bc34b9ba32b73a103a37b5b2b760911b60648201526084016103f9565b600082815260066020526040902061049a8282611717565b6001811115610635576001600160a01b03841615610d69576001600160a01b03841660009081526003602052604081208054839290610d639084906117ed565b90915550505b6001600160a01b03831615610635576001600160a01b03831660009081526003602052604081208054839290610da0908490611800565b909155505050505050565b60006001600160a01b0384163b15610ea157604051630a85bd0160e11b81526001600160a01b0385169063150b7a0290610def903390899088908890600401611813565b6020604051808303816000875af1925050508015610e2a575060408051601f3d908101601f19168201909252610e2791810190611850565b60015b610e87573d808015610e58576040519150601f19603f3d011682016040523d82523d6000602084013e610e5d565b606091505b508051600003610e7f5760405162461bcd60e51b81526004016103f990611648565b805181602001fd5b6001600160e01b031916630a85bd0160e11b149050610848565b506001949350505050565b6060610eb782610724565b6000610ece60408051602081019091526000815290565b90506000815111610eee5760405180602001604052806000815250610f19565b80610ef884610f53565b604051602001610f0992919061169a565b6040516020818303038152906040525b9392505050565b610f2a8383610fe6565b610f376000848484610dab565b61049a5760405162461bcd60e51b81526004016103f990611648565b60606000610f608361117f565b600101905060008167ffffffffffffffff811115610f8057610f806113df565b6040519080825280601f01601f191660200182016040528015610faa576020820181803683370190505b5090508181016020015b600019016f181899199a1a9b1b9c1cb0b131b232b360811b600a86061a8153600a8504945084610fb457509392505050565b6001600160a01b03821661103c5760405162461bcd60e51b815260206004820181905260248201527f4552433732313a206d696e7420746f20746865207a65726f206164647265737360448201526064016103f9565b6000818152600260205260409020546001600160a01b0316156110a15760405162461bcd60e51b815260206004820152601c60248201527f4552433732313a20746f6b656e20616c7265616479206d696e7465640000000060448201526064016103f9565b6110af600083836001610d23565b6000818152600260205260409020546001600160a01b0316156111145760405162461bcd60e51b815260206004820152601c60248201527f4552433732313a20746f6b656e20616c7265616479206d696e7465640000000060448201526064016103f9565b6001600160a01b038216600081815260036020908152604080832080546001019055848352600290915280822080546001600160a01b0319168417905551839291907fddf252ad1be2c89b69c2b068fc378daa952ba7f163c4a11628f55a4df523b3ef908290a45050565b60008072184f03e93ff9f4daa797ed6e38ed64bf6a1f0160401b83106111be5772184f03e93ff9f4daa797ed6e38ed64bf6a1f0160401b830492506040015b6d04ee2d6d415b85acef810000000083106111ea576d04ee2d6d415b85acef8100000000830492506020015b662386f26fc10000831061120857662386f26fc10000830492506010015b6305f5e1008310611220576305f5e100830492506008015b612710831061123457612710830492506004015b60648310611246576064830492506002015b600a83106102c65760010192915050565b6001600160e01b03198116811461072157600080fd5b60006020828403121561127f57600080fd5b8135610f1981611257565b60005b838110156112a557818101518382015260200161128d565b50506000910152565b600081518084526112c681602086016020860161128a565b601f01601f19169290920160200192915050565b602081526000610f1960208301846112ae565b6000602082840312156112ff57600080fd5b5035919050565b80356001600160a01b038116811461131d57600080fd5b919050565b6000806040838503121561133557600080fd5b61133e83611306565b946020939093013593505050565b60008060006060848603121561136157600080fd5b61136a84611306565b925061137860208501611306565b9150604084013590509250925092565b60006020828403121561139a57600080fd5b610f1982611306565b600080604083850312156113b657600080fd5b6113bf83611306565b9150602083013580151581146113d457600080fd5b809150509250929050565b634e487b7160e01b600052604160045260246000fd5b600067ffffffffffffffff80841115611410576114106113df565b604051601f8501601f19908116603f01168101908282118183101715611438576114386113df565b8160405280935085815286868601111561145157600080fd5b858560208301376000602087830101525050509392505050565b6000806000806080858703121561148157600080fd5b61148a85611306565b935061149860208601611306565b925060408501359150606085013567ffffffffffffffff8111156114bb57600080fd5b8501601f810187136114cc57600080fd5b6114db878235602084016113f5565b91505092959194509250565b600080604083850312156114fa57600080fd5b61150383611306565b9150602083013567ffffffffffffffff81111561151f57600080fd5b8301601f8101851361153057600080fd5b61153f858235602084016113f5565b9150509250929050565b6000806040838503121561155c57600080fd5b61156583611306565b915061157360208401611306565b90509250929050565b600181811c9082168061159057607f821691505b6020821081036115b057634e487b7160e01b600052602260045260246000fd5b50919050565b6020808252602d908201527f4552433732313a2063616c6c6572206973206e6f7420746f6b656e206f776e6560408201526c1c881bdc88185c1c1c9bdd9959609a1b606082015260800190565b60208082526025908201527f4552433732313a207472616e736665722066726f6d20696e636f72726563742060408201526437bbb732b960d91b606082015260800190565b60208082526032908201527f4552433732313a207472616e7366657220746f206e6f6e20455243373231526560408201527131b2b4bb32b91034b6b83632b6b2b73a32b960711b606082015260800190565b600083516116ac81846020880161128a565b8351908301906116c081836020880161128a565b01949350505050565b601f82111561049a57600081815260208120601f850160051c810160208610156116f05750805b601f850160051c820191505b8181101561170f578281556001016116fc565b505050505050565b815167ffffffffffffffff811115611731576117316113df565b6117458161173f845461157c565b846116c9565b602080601f83116001811461177a57600084156117625750858301515b600019600386901b1c1916600185901b17855561170f565b600085815260208120601f198616915b828110156117a95788860151825594840194600190910190840161178a565b50858210156117c75787850151600019600388901b60f8161c191681555b5050505050600190811b01905550565b634e487b7160e01b600052601160045260246000fd5b818103818111156102c6576102c66117d7565b808201808211156102c6576102c66117d7565b6001600160a01b0385811682528416602082015260408101839052608060608201819052600090611846908301846112ae565b9695505050505050565b60006020828403121561186257600080fd5b8151610f198161125756fea2646970667358221220e8ceaf5de1eb55dfb04ad6678829ce515c4784d9900ec212ab287968fe48890b64736f6c6343000810003360806040523480156200001157600080fd5b506040516200204838038062002048833981016040819052620000349162000285565b82826000620000448382620003a1565b506001620000538282620003a1565b50506007805460ff19169055506200006b336200007f565b6200007681620000d9565b5050506200046d565b600780546001600160a01b03838116610100818102610100600160a81b031985161790945560405193909204169182907f8be0079c531659141344cd1fd0a4f28419497f9722a3daafe3b4186f6b6457e090600090a35050565b620000e36200015c565b6001600160a01b0381166200014e5760405162461bcd60e51b815260206004820152602660248201527f4f776e61626c653a206e6577206f776e657220697320746865207a65726f206160448201526564647265737360d01b60648201526084015b60405180910390fd5b62000159816200007f565b50565b6007546001600160a01b03610100909104163314620001be5760405162461bcd60e51b815260206004820181905260248201527f4f776e61626c653a2063616c6c6572206973206e6f7420746865206f776e6572604482015260640162000145565b565b634e487b7160e01b600052604160045260246000fd5b600082601f830112620001e857600080fd5b81516001600160401b0380821115620002055762000205620001c0565b604051601f8301601f19908116603f01168101908282118183101715620002305762000230620001c0565b816040528381526020925086838588010111156200024d57600080fd5b600091505b8382101562000271578582018301518183018401529082019062000252565b600093810190920192909252949350505050565b6000806000606084860312156200029b57600080fd5b83516001600160401b0380821115620002b357600080fd5b620002c187838801620001d6565b94506020860151915080821115620002d857600080fd5b50620002e786828701620001d6565b604086015190935090506001600160a01b03811681146200030757600080fd5b809150509250925092565b600181811c908216806200032757607f821691505b6020821081036200034857634e487b7160e01b600052602260045260246000fd5b50919050565b601f8211156200039c57600081815260208120601f850160051c81016020861015620003775750805b601f850160051c820191505b81811015620003985782815560010162000383565b5050505b505050565b81516001600160401b03811115620003bd57620003bd620001c0565b620003d581620003ce845462000312565b846200034e565b602080601f8311600181146200040d5760008415620003f45750858301515b600019600386901b1c1916600185901b17855562000398565b600085815260208120601f198616915b828110156200043e578886015182559484019460019091019084016200041d565b50858210156200045d5787850151600019600388901b60f8161c191681555b5050505050600190811b01905550565b611bcb806200047d6000396000f3fe608060405234801561001057600080fd5b50600436106101375760003560e01c806370a08231116100b8578063a22cb4651161007c578063a22cb46514610267578063b88d4fde1461027a578063c87b56dd1461028d578063d204c45e146102a0578063e985e9c5146102b3578063f2fde38b146102c657600080fd5b806370a0823114610218578063715018a6146102395780638456cb59146102415780638da5cb5b1461024957806395d89b411461025f57600080fd5b80633f4ba83a116100ff5780633f4ba83a146101cc57806342842e0e146101d457806342966c68146101e75780635c975abb146101fa5780636352211e1461020557600080fd5b806301ffc9a71461013c57806306fdde0314610164578063081812fc14610179578063095ea7b3146101a457806323b872dd146101b9575b600080fd5b61014f61014a366004611595565b6102d9565b60405190151581526020015b60405180910390f35b61016c61032b565b60405161015b9190611602565b61018c610187366004611615565b6103bd565b6040516001600160a01b03909116815260200161015b565b6101b76101b236600461164a565b6103e4565b005b6101b76101c7366004611674565b6104fe565b6101b7610530565b6101b76101e2366004611674565b610542565b6101b76101f5366004611615565b61055d565b60075460ff1661014f565b61018c610213366004611615565b61058e565b61022b6102263660046116b0565b6105ee565b60405190815260200161015b565b6101b7610674565b6101b7610686565b60075461010090046001600160a01b031661018c565b61016c610696565b6101b76102753660046116cb565b6106a5565b6101b7610288366004611793565b6106b4565b61016c61029b366004611615565b6106ec565b6101b76102ae36600461180f565b6106f7565b61014f6102c1366004611871565b61072e565b6101b76102d43660046116b0565b61075c565b60006001600160e01b031982166380ac58cd60e01b148061030a57506001600160e01b03198216635b5e139f60e01b145b8061032557506301ffc9a760e01b6001600160e01b03198316145b92915050565b60606000805461033a906118a4565b80601f0160208091040260200160405190810160405280929190818152602001828054610366906118a4565b80156103b35780601f10610388576101008083540402835291602001916103b3565b820191906000526020600020905b81548152906001019060200180831161039657829003601f168201915b5050505050905090565b60006103c8826107d2565b506000908152600460205260409020546001600160a01b031690565b60006103ef8261058e565b9050806001600160a01b0316836001600160a01b0316036104615760405162461bcd60e51b815260206004820152602160248201527f4552433732313a20617070726f76616c20746f2063757272656e74206f776e656044820152603960f91b60648201526084015b60405180910390fd5b336001600160a01b038216148061047d575061047d813361072e565b6104ef5760405162461bcd60e51b815260206004820152603d60248201527f4552433732313a20617070726f76652063616c6c6572206973206e6f7420746f60448201527f6b656e206f776e6572206f7220617070726f76656420666f7220616c6c0000006064820152608401610458565b6104f98383610831565b505050565b610509335b8261089f565b6105255760405162461bcd60e51b8152600401610458906118de565b6104f98383836108fe565b610538610a6f565b610540610acf565b565b6104f9838383604051806020016040528060008152506106b4565b61056633610503565b6105825760405162461bcd60e51b8152600401610458906118de565b61058b81610b21565b50565b6000818152600260205260408120546001600160a01b0316806103255760405162461bcd60e51b8152602060048201526018602482015277115490cdcc8c4e881a5b9d985b1a59081d1bdad95b88125160421b6044820152606401610458565b60006001600160a01b0382166106585760405162461bcd60e51b815260206004820152602960248201527f4552433732313a2061646472657373207a65726f206973206e6f7420612076616044820152683634b21037bbb732b960b91b6064820152608401610458565b506001600160a01b031660009081526003602052604090205490565b61067c610a6f565b6105406000610b2a565b61068e610a6f565b610540610b84565b60606001805461033a906118a4565b6106b0338383610bc1565b5050565b6106be338361089f565b6106da5760405162461bcd60e51b8152600401610458906118de565b6106e684848484610c8f565b50505050565b606061032582610cc2565b6106ff610a6f565b600061070a60085490565b905061071a600880546001019055565b6107248382610dca565b6104f98183610de4565b6001600160a01b03918216600090815260056020908152604080832093909416825291909152205460ff1690565b610764610a6f565b6001600160a01b0381166107c95760405162461bcd60e51b815260206004820152602660248201527f4f776e61626c653a206e6577206f776e657220697320746865207a65726f206160448201526564647265737360d01b6064820152608401610458565b61058b81610b2a565b6000818152600260205260409020546001600160a01b031661058b5760405162461bcd60e51b8152602060048201526018602482015277115490cdcc8c4e881a5b9d985b1a59081d1bdad95b88125160421b6044820152606401610458565b600081815260046020526040902080546001600160a01b0319166001600160a01b03841690811790915581906108668261058e565b6001600160a01b03167f8c5be1e5ebec7d5bd14f71427d1e84f3dd0314c0f7b2291e5b200ac8c7c3b92560405160405180910390a45050565b6000806108ab8361058e565b9050806001600160a01b0316846001600160a01b031614806108d257506108d2818561072e565b806108f65750836001600160a01b03166108eb846103bd565b6001600160a01b0316145b949350505050565b826001600160a01b03166109118261058e565b6001600160a01b0316146109375760405162461bcd60e51b81526004016104589061192b565b6001600160a01b0382166109995760405162461bcd60e51b8152602060048201526024808201527f4552433732313a207472616e7366657220746f20746865207a65726f206164646044820152637265737360e01b6064820152608401610458565b6109a68383836001610e77565b826001600160a01b03166109b98261058e565b6001600160a01b0316146109df5760405162461bcd60e51b81526004016104589061192b565b600081815260046020908152604080832080546001600160a01b03199081169091556001600160a01b0387811680865260038552838620805460001901905590871680865283862080546001019055868652600290945282852080549092168417909155905184937fddf252ad1be2c89b69c2b068fc378daa952ba7f163c4a11628f55a4df523b3ef91a4505050565b6007546001600160a01b036101009091041633146105405760405162461bcd60e51b815260206004820181905260248201527f4f776e61626c653a2063616c6c6572206973206e6f7420746865206f776e65726044820152606401610458565b610ad7610e8b565b6007805460ff191690557f5db9ee0a495bf2e6ff9c91a7834c1ba4fdd244a5e8aa4e537bd38aeae4b073aa335b6040516001600160a01b03909116815260200160405180910390a1565b61058b81610ed4565b600780546001600160a01b03838116610100818102610100600160a81b031985161790945560405193909204169182907f8be0079c531659141344cd1fd0a4f28419497f9722a3daafe3b4186f6b6457e090600090a35050565b610b8c610f14565b6007805460ff191660011790557f62e78cea01bee320cd4e420270b5ea74000d11b0c9f74754ebdbfc544b05a258610b043390565b816001600160a01b0316836001600160a01b031603610c225760405162461bcd60e51b815260206004820152601960248201527f4552433732313a20617070726f766520746f2063616c6c6572000000000000006044820152606401610458565b6001600160a01b03838116600081815260056020908152604080832094871680845294825291829020805460ff191686151590811790915591519182527f17307eab39ab6107e8899845ad3d59bd9653f200f220920489ca2b5937696c31910160405180910390a3505050565b610c9a8484846108fe565b610ca684848484610f5a565b6106e65760405162461bcd60e51b815260040161045890611970565b6060610ccd826107d2565b60008281526006602052604081208054610ce6906118a4565b80601f0160208091040260200160405190810160405280929190818152602001828054610d12906118a4565b8015610d5f5780601f10610d3457610100808354040283529160200191610d5f565b820191906000526020600020905b815481529060010190602001808311610d4257829003601f168201915b505050505090506000610d7d60408051602081019091526000815290565b90508051600003610d8f575092915050565b815115610dc1578082604051602001610da99291906119c2565b60405160208183030381529060405292505050919050565b6108f68461105b565b6106b08282604051806020016040528060008152506110cf565b6000828152600260205260409020546001600160a01b0316610e5f5760405162461bcd60e51b815260206004820152602e60248201527f45524337323155524953746f726167653a2055524920736574206f66206e6f6e60448201526d32bc34b9ba32b73a103a37b5b2b760911b6064820152608401610458565b60008281526006602052604090206104f98282611a3f565b610e7f610f14565b6106e684848484611102565b60075460ff166105405760405162461bcd60e51b815260206004820152601460248201527314185d5cd8589b194e881b9bdd081c185d5cd95960621b6044820152606401610458565b610edd8161118a565b60008181526006602052604090208054610ef6906118a4565b15905061058b57600081815260066020526040812061058b91611531565b60075460ff16156105405760405162461bcd60e51b815260206004820152601060248201526f14185d5cd8589b194e881c185d5cd95960821b6044820152606401610458565b60006001600160a01b0384163b1561105057604051630a85bd0160e11b81526001600160a01b0385169063150b7a0290610f9e903390899088908890600401611aff565b6020604051808303816000875af1925050508015610fd9575060408051601f3d908101601f19168201909252610fd691810190611b3c565b60015b611036573d808015611007576040519150601f19603f3d011682016040523d82523d6000602084013e61100c565b606091505b50805160000361102e5760405162461bcd60e51b815260040161045890611970565b805181602001fd5b6001600160e01b031916630a85bd0160e11b1490506108f6565b506001949350505050565b6060611066826107d2565b600061107d60408051602081019091526000815290565b9050600081511161109d57604051806020016040528060008152506110c8565b806110a78461122d565b6040516020016110b89291906119c2565b6040516020818303038152906040525b9392505050565b6110d983836112c0565b6110e66000848484610f5a565b6104f95760405162461bcd60e51b815260040161045890611970565b60018111156106e6576001600160a01b03841615611148576001600160a01b03841660009081526003602052604081208054839290611142908490611b6f565b90915550505b6001600160a01b038316156106e6576001600160a01b0383166000908152600360205260408120805483929061117f908490611b82565b909155505050505050565b60006111958261058e565b90506111a5816000846001610e77565b6111ae8261058e565b600083815260046020908152604080832080546001600160a01b03199081169091556001600160a01b0385168085526003845282852080546000190190558785526002909352818420805490911690555192935084927fddf252ad1be2c89b69c2b068fc378daa952ba7f163c4a11628f55a4df523b3ef908390a45050565b6060600061123a83611459565b600101905060008167ffffffffffffffff81111561125a5761125a611707565b6040519080825280601f01601f191660200182016040528015611284576020820181803683370190505b5090508181016020015b600019016f181899199a1a9b1b9c1cb0b131b232b360811b600a86061a8153600a850494508461128e57509392505050565b6001600160a01b0382166113165760405162461bcd60e51b815260206004820181905260248201527f4552433732313a206d696e7420746f20746865207a65726f20616464726573736044820152606401610458565b6000818152600260205260409020546001600160a01b03161561137b5760405162461bcd60e51b815260206004820152601c60248201527f4552433732313a20746f6b656e20616c7265616479206d696e746564000000006044820152606401610458565b611389600083836001610e77565b6000818152600260205260409020546001600160a01b0316156113ee5760405162461bcd60e51b815260206004820152601c60248201527f4552433732313a20746f6b656e20616c7265616479206d696e746564000000006044820152606401610458565b6001600160a01b038216600081815260036020908152604080832080546001019055848352600290915280822080546001600160a01b0319168417905551839291907fddf252ad1be2c89b69c2b068fc378daa952ba7f163c4a11628f55a4df523b3ef908290a45050565b60008072184f03e93ff9f4daa797ed6e38ed64bf6a1f0160401b83106114985772184f03e93ff9f4daa797ed6e38ed64bf6a1f0160401b830492506040015b6d04ee2d6d415b85acef810000000083106114c4576d04ee2d6d415b85acef8100000000830492506020015b662386f26fc1000083106114e257662386f26fc10000830492506010015b6305f5e10083106114fa576305f5e100830492506008015b612710831061150e57612710830492506004015b60648310611520576064830492506002015b600a83106103255760010192915050565b50805461153d906118a4565b6000825580601f1061154d575050565b601f01602090049060005260206000209081019061058b91905b8082111561157b5760008155600101611567565b5090565b6001600160e01b03198116811461058b57600080fd5b6000602082840312156115a757600080fd5b81356110c88161157f565b60005b838110156115cd5781810151838201526020016115b5565b50506000910152565b600081518084526115ee8160208601602086016115b2565b601f01601f19169290920160200192915050565b6020815260006110c860208301846115d6565b60006020828403121561162757600080fd5b5035919050565b80356001600160a01b038116811461164557600080fd5b919050565b6000806040838503121561165d57600080fd5b6116668361162e565b946020939093013593505050565b60008060006060848603121561168957600080fd5b6116928461162e565b92506116a06020850161162e565b9150604084013590509250925092565b6000602082840312156116c257600080fd5b6110c88261162e565b600080604083850312156116de57600080fd5b6116e78361162e565b9150602083013580151581146116fc57600080fd5b809150509250929050565b634e487b7160e01b600052604160045260246000fd5b600067ffffffffffffffff8084111561173857611738611707565b604051601f8501601f19908116603f0116810190828211818310171561176057611760611707565b8160405280935085815286868601111561177957600080fd5b858560208301376000602087830101525050509392505050565b600080600080608085870312156117a957600080fd5b6117b28561162e565b93506117c06020860161162e565b925060408501359150606085013567ffffffffffffffff8111156117e357600080fd5b8501601f810187136117f457600080fd5b6118038782356020840161171d565b91505092959194509250565b6000806040838503121561182257600080fd5b61182b8361162e565b9150602083013567ffffffffffffffff81111561184757600080fd5b8301601f8101851361185857600080fd5b6118678582356020840161171d565b9150509250929050565b6000806040838503121561188457600080fd5b61188d8361162e565b915061189b6020840161162e565b90509250929050565b600181811c908216806118b857607f821691505b6020821081036118d857634e487b7160e01b600052602260045260246000fd5b50919050565b6020808252602d908201527f4552433732313a2063616c6c6572206973206e6f7420746f6b656e206f776e6560408201526c1c881bdc88185c1c1c9bdd9959609a1b606082015260800190565b60208082526025908201527f4552433732313a207472616e736665722066726f6d20696e636f72726563742060408201526437bbb732b960d91b606082015260800190565b60208082526032908201527f4552433732313a207472616e7366657220746f206e6f6e20455243373231526560408201527131b2b4bb32b91034b6b83632b6b2b73a32b960711b606082015260800190565b600083516119d48184602088016115b2565b8351908301906119e88183602088016115b2565b01949350505050565b601f8211156104f957600081815260208120601f850160051c81016020861015611a185750805b601f850160051c820191505b81811015611a3757828155600101611a24565b505050505050565b815167ffffffffffffffff811115611a5957611a59611707565b611a6d81611a6784546118a4565b846119f1565b602080601f831160018114611aa25760008415611a8a5750858301515b600019600386901b1c1916600185901b178555611a37565b600085815260208120601f198616915b82811015611ad157888601518255948401946001909101908401611ab2565b5085821015611aef5787850151600019600388901b60f8161c191681555b5050505050600190811b01905550565b6001600160a01b0385811682528416602082015260408101839052608060608201819052600090611b32908301846115d6565b9695505050505050565b600060208284031215611b4e57600080fd5b81516110c88161157f565b634e487b7160e01b600052601160045260246000fd5b8181038181111561032557610325611b59565b8082018082111561032557610325611b5956fea2646970667358221220430d77518149f0a2bc6af31c1c7028f44b63ec065284e2275b378c4e001e803864736f6c63430008100033a26469706673582212201ed2cdea6186343624a519434cc407adb12b6a0e7740f53eecf63648997f9f5d64736f6c63430008100033",
  "immutableReferences": {},
  "source": "// SPDX-License-Identifier: Leluk\npragma solidity ^0.8.7;\n\nimport \"./coreFunction.sol\";\nimport \"./NFTMintableProgressiveStorageURIBurnablePausable.sol\";\nimport \"./NFTMintableProgressiveStorageURIBurnable.sol\";\n\ncontract creatorTokenNFT is creatorTokenCoreFunction {\n    uint256 private feesNFT;\n\n    constructor(uint256 _feesNFT) {\n        feesNFT = _feesNFT;\n    }\n\n    event CreateNewNFT(address indexed user, address nft);\n\n    function setFees(uint256 _newFees) external onlyOwner {\n        _setFees(_newFees);\n        emit NewValueFee(_newFees);\n    }\n\n    function getFees() public view returns (uint256 Fees) {\n        Fees = feesNFT;\n    }\n\n    \n\n    function createNftProStoURIburnalblePausable(\n        address _owner,\n        string memory _name,\n        string memory _ticker\n    ) public payable nonReentrant whenNotPaused returns (address _NftAddress) {\n        require(msg.value == feesNFT, \"Payament fees is faill\");\n        balance += feesNFT;\n        _NftAddress = _createNftProStoURIburnalblePausable(\n            _owner,\n            _name,\n            _ticker\n        );\n        emit CreateNewNFT(msg.sender, _NftAddress);\n        return _NftAddress;\n    }\n\n    function createNftProStoURIburnalble(\n        address _owner,\n        string memory _name,\n        string memory _ticker\n    ) public payable nonReentrant whenNotPaused returns (address _NftAddress) {\n        require(msg.value == feesNFT, \"Payament fees is faill\");\n        balance += feesNFT;\n        _NftAddress = _createNftProStoURIburnalble(_owner, _name, _ticker);\n        emit CreateNewNFT(msg.sender, _NftAddress);\n        return _NftAddress;\n    }\n\n    function _setFees(uint256 _newFees) private {\n        feesNFT = _newFees;\n    }\n\n    \n\n    function _createNftProStoURIburnalblePausable(\n        address _owner,\n        string memory _name,\n        string memory _ticker\n    ) private returns (address _NftAddress) {\n        Erc721ProStoURIburnalblePausable _Erc721ProStoURIburnalblePausable = new Erc721ProStoURIburnalblePausable(\n                _name,\n                _ticker,\n                _owner\n            );\n        return _NftAddress = address(_Erc721ProStoURIburnalblePausable);\n    }\n\n    function _createNftProStoURIburnalble(\n        address _owner,\n        string memory _name,\n        string memory _ticker\n    ) private returns (address _NftAddress) {\n        Erc721ProStoURIburnalble _Erc721ProStoURIburnalble = new Erc721ProStoURIburnalble(\n                _name,\n                _ticker,\n                _owner\n            );\n        return _NftAddress = address(_Erc721ProStoURIburnalble);\n    }\n}\n",
  "sourcePath": "/run/media/luk/storage/Studio Dev/tutorial-react/corso next.js/esercizi/Contract personal-page/contracts/CreateNFT.sol",
  "compiler": {
    "name": "solc",
    "version": "0.8.16+commit.07a7930e.Emscripten.clang"
  },
  "schemaVersion": "3.4.9",
  "updatedAt": "2022-12-14T20:07:04.366Z",
  "networkType": "ethereum",
  "devdoc": {
    "kind": "dev",
    "methods": {
      "owner()": {
        "details": "Returns the address of the current owner."
      },
      "paused()": {
        "details": "Returns true if the contract is paused, and false otherwise."
      },
      "renounceOwnership()": {
        "details": "Leaves the contract without owner. It will not be possible to call `onlyOwner` functions anymore. Can only be called by the current owner. NOTE: Renouncing ownership will leave the contract without an owner, thereby removing any functionality that is only available to the owner."
      },
      "transferOwnership(address)": {
        "details": "Transfers ownership of the contract to a new account (`newOwner`). Can only be called by the current owner."
      }
    },
    "version": 1
  },
  "userdoc": {
    "kind": "user",
    "methods": {},
    "version": 1
  }
}