{
  "contractName": "Erc20FixSupplyPausable",
  "abi": [
    {
      "inputs": [
        {
          "internalType": "string",
          "name": "_name",
          "type": "string"
        },
        {
          "internalType": "string",
          "name": "_ticker",
          "type": "string"
        },
        {
          "internalType": "uint256",
          "name": "_supply",
          "type": "uint256"
        },
        {
          "internalType": "address",
          "name": "_recipient",
          "type": "address"
        }
      ],
      "stateMutability": "nonpayable",
      "type": "constructor"
    },
    {
      "anonymous": false,
      "inputs": [
        {
          "indexed": true,
          "internalType": "address",
          "name": "owner",
          "type": "address"
        },
        {
          "indexed": true,
          "internalType": "address",
          "name": "spender",
          "type": "address"
        },
        {
          "indexed": false,
          "internalType": "uint256",
          "name": "value",
          "type": "uint256"
        }
      ],
      "name": "Approval",
      "type": "event"
    },
    {
      "anonymous": false,
      "inputs": [
        {
          "indexed": true,
          "internalType": "address",
          "name": "previousOwner",
          "type": "address"
        },
        {
          "indexed": true,
          "internalType": "address",
          "name": "newOwner",
          "type": "address"
        }
      ],
      "name": "OwnershipTransferred",
      "type": "event"
    },
    {
      "anonymous": false,
      "inputs": [
        {
          "indexed": false,
          "internalType": "address",
          "name": "account",
          "type": "address"
        }
      ],
      "name": "Paused",
      "type": "event"
    },
    {
      "anonymous": false,
      "inputs": [
        {
          "indexed": true,
          "internalType": "address",
          "name": "from",
          "type": "address"
        },
        {
          "indexed": true,
          "internalType": "address",
          "name": "to",
          "type": "address"
        },
        {
          "indexed": false,
          "internalType": "uint256",
          "name": "value",
          "type": "uint256"
        }
      ],
      "name": "Transfer",
      "type": "event"
    },
    {
      "anonymous": false,
      "inputs": [
        {
          "indexed": false,
          "internalType": "address",
          "name": "account",
          "type": "address"
        }
      ],
      "name": "Unpaused",
      "type": "event"
    },
    {
      "inputs": [
        {
          "internalType": "address",
          "name": "owner",
          "type": "address"
        },
        {
          "internalType": "address",
          "name": "spender",
          "type": "address"
        }
      ],
      "name": "allowance",
      "outputs": [
        {
          "internalType": "uint256",
          "name": "",
          "type": "uint256"
        }
      ],
      "stateMutability": "view",
      "type": "function"
    },
    {
      "inputs": [
        {
          "internalType": "address",
          "name": "spender",
          "type": "address"
        },
        {
          "internalType": "uint256",
          "name": "amount",
          "type": "uint256"
        }
      ],
      "name": "approve",
      "outputs": [
        {
          "internalType": "bool",
          "name": "",
          "type": "bool"
        }
      ],
      "stateMutability": "nonpayable",
      "type": "function"
    },
    {
      "inputs": [
        {
          "internalType": "address",
          "name": "account",
          "type": "address"
        }
      ],
      "name": "balanceOf",
      "outputs": [
        {
          "internalType": "uint256",
          "name": "",
          "type": "uint256"
        }
      ],
      "stateMutability": "view",
      "type": "function"
    },
    {
      "inputs": [],
      "name": "decimals",
      "outputs": [
        {
          "internalType": "uint8",
          "name": "",
          "type": "uint8"
        }
      ],
      "stateMutability": "view",
      "type": "function"
    },
    {
      "inputs": [
        {
          "internalType": "address",
          "name": "spender",
          "type": "address"
        },
        {
          "internalType": "uint256",
          "name": "subtractedValue",
          "type": "uint256"
        }
      ],
      "name": "decreaseAllowance",
      "outputs": [
        {
          "internalType": "bool",
          "name": "",
          "type": "bool"
        }
      ],
      "stateMutability": "nonpayable",
      "type": "function"
    },
    {
      "inputs": [
        {
          "internalType": "address",
          "name": "spender",
          "type": "address"
        },
        {
          "internalType": "uint256",
          "name": "addedValue",
          "type": "uint256"
        }
      ],
      "name": "increaseAllowance",
      "outputs": [
        {
          "internalType": "bool",
          "name": "",
          "type": "bool"
        }
      ],
      "stateMutability": "nonpayable",
      "type": "function"
    },
    {
      "inputs": [],
      "name": "name",
      "outputs": [
        {
          "internalType": "string",
          "name": "",
          "type": "string"
        }
      ],
      "stateMutability": "view",
      "type": "function"
    },
    {
      "inputs": [],
      "name": "owner",
      "outputs": [
        {
          "internalType": "address",
          "name": "",
          "type": "address"
        }
      ],
      "stateMutability": "view",
      "type": "function"
    },
    {
      "inputs": [],
      "name": "paused",
      "outputs": [
        {
          "internalType": "bool",
          "name": "",
          "type": "bool"
        }
      ],
      "stateMutability": "view",
      "type": "function"
    },
    {
      "inputs": [],
      "name": "renounceOwnership",
      "outputs": [],
      "stateMutability": "nonpayable",
      "type": "function"
    },
    {
      "inputs": [],
      "name": "symbol",
      "outputs": [
        {
          "internalType": "string",
          "name": "",
          "type": "string"
        }
      ],
      "stateMutability": "view",
      "type": "function"
    },
    {
      "inputs": [],
      "name": "totalSupply",
      "outputs": [
        {
          "internalType": "uint256",
          "name": "",
          "type": "uint256"
        }
      ],
      "stateMutability": "view",
      "type": "function"
    },
    {
      "inputs": [
        {
          "internalType": "address",
          "name": "to",
          "type": "address"
        },
        {
          "internalType": "uint256",
          "name": "amount",
          "type": "uint256"
        }
      ],
      "name": "transfer",
      "outputs": [
        {
          "internalType": "bool",
          "name": "",
          "type": "bool"
        }
      ],
      "stateMutability": "nonpayable",
      "type": "function"
    },
    {
      "inputs": [
        {
          "internalType": "address",
          "name": "from",
          "type": "address"
        },
        {
          "internalType": "address",
          "name": "to",
          "type": "address"
        },
        {
          "internalType": "uint256",
          "name": "amount",
          "type": "uint256"
        }
      ],
      "name": "transferFrom",
      "outputs": [
        {
          "internalType": "bool",
          "name": "",
          "type": "bool"
        }
      ],
      "stateMutability": "nonpayable",
      "type": "function"
    },
    {
      "inputs": [
        {
          "internalType": "address",
          "name": "newOwner",
          "type": "address"
        }
      ],
      "name": "transferOwnership",
      "outputs": [],
      "stateMutability": "nonpayable",
      "type": "function"
    },
    {
      "inputs": [],
      "name": "pause",
      "outputs": [],
      "stateMutability": "nonpayable",
      "type": "function"
    },
    {
      "inputs": [],
      "name": "unpause",
      "outputs": [],
      "stateMutability": "nonpayable",
      "type": "function"
    }
  ],
  "bytecode": "0x60806040523480156200001157600080fd5b50604051620028ab380380620028ab833981810160405281019062000037919062000761565b838381600390816200004a919062000a52565b5080600490816200005c919062000a52565b5050506000600560006101000a81548160ff0219169083151502179055506200009a6200008e620000f660201b60201c565b620000fe60201b60201c565b620000d681620000af620001c460201b60201c565b600a620000bd919062000cc9565b84620000ca919062000d1a565b620001cd60201b60201c565b620000ec816200033a60201b620006f01760201c565b5050505062000fe3565b600033905090565b6000600560019054906101000a900473ffffffffffffffffffffffffffffffffffffffff16905081600560016101000a81548173ffffffffffffffffffffffffffffffffffffffff021916908373ffffffffffffffffffffffffffffffffffffffff1602179055508173ffffffffffffffffffffffffffffffffffffffff168173ffffffffffffffffffffffffffffffffffffffff167f8be0079c531659141344cd1fd0a4f28419497f9722a3daafe3b4186f6b6457e060405160405180910390a35050565b60006012905090565b600073ffffffffffffffffffffffffffffffffffffffff168273ffffffffffffffffffffffffffffffffffffffff16036200023f576040517f08c379a0000000000000000000000000000000000000000000000000000000008152600401620002369062000ddc565b60405180910390fd5b6200025360008383620003d060201b60201c565b806002600082825462000267919062000dfe565b92505081905550806000808473ffffffffffffffffffffffffffffffffffffffff1673ffffffffffffffffffffffffffffffffffffffff168152602001908152602001600020600082825401925050819055508173ffffffffffffffffffffffffffffffffffffffff16600073ffffffffffffffffffffffffffffffffffffffff167fddf252ad1be2c89b69c2b068fc378daa952ba7f163c4a11628f55a4df523b3ef836040516200031a919062000e4a565b60405180910390a36200033660008383620003fd60201b60201c565b5050565b6200034a6200040260201b60201c565b600073ffffffffffffffffffffffffffffffffffffffff168173ffffffffffffffffffffffffffffffffffffffff1603620003bc576040517f08c379a0000000000000000000000000000000000000000000000000000000008152600401620003b39062000edd565b60405180910390fd5b620003cd81620000fe60201b60201c565b50565b620003e06200049360201b60201c565b620003f8838383620004e860201b620007731760201c565b505050565b505050565b62000412620000f660201b60201c565b73ffffffffffffffffffffffffffffffffffffffff1662000438620004ed60201b60201c565b73ffffffffffffffffffffffffffffffffffffffff161462000491576040517f08c379a0000000000000000000000000000000000000000000000000000000008152600401620004889062000f4f565b60405180910390fd5b565b620004a36200051760201b60201c565b15620004e6576040517f08c379a0000000000000000000000000000000000000000000000000000000008152600401620004dd9062000fc1565b60405180910390fd5b565b505050565b6000600560019054906101000a900473ffffffffffffffffffffffffffffffffffffffff16905090565b6000600560009054906101000a900460ff16905090565b6000604051905090565b600080fd5b600080fd5b600080fd5b600080fd5b6000601f19601f8301169050919050565b7f4e487b7100000000000000000000000000000000000000000000000000000000600052604160045260246000fd5b62000597826200054c565b810181811067ffffffffffffffff82111715620005b957620005b86200055d565b5b80604052505050565b6000620005ce6200052e565b9050620005dc82826200058c565b919050565b600067ffffffffffffffff821115620005ff57620005fe6200055d565b5b6200060a826200054c565b9050602081019050919050565b60005b83811015620006375780820151818401526020810190506200061a565b60008484015250505050565b60006200065a6200065484620005e1565b620005c2565b90508281526020810184848401111562000679576200067862000547565b5b6200068684828562000617565b509392505050565b600082601f830112620006a657620006a562000542565b5b8151620006b884826020860162000643565b91505092915050565b6000819050919050565b620006d681620006c1565b8114620006e257600080fd5b50565b600081519050620006f681620006cb565b92915050565b600073ffffffffffffffffffffffffffffffffffffffff82169050919050565b60006200072982620006fc565b9050919050565b6200073b816200071c565b81146200074757600080fd5b50565b6000815190506200075b8162000730565b92915050565b600080600080608085870312156200077e576200077d62000538565b5b600085015167ffffffffffffffff8111156200079f576200079e6200053d565b5b620007ad878288016200068e565b945050602085015167ffffffffffffffff811115620007d157620007d06200053d565b5b620007df878288016200068e565b9350506040620007f287828801620006e5565b925050606062000805878288016200074a565b91505092959194509250565b600081519050919050565b7f4e487b7100000000000000000000000000000000000000000000000000000000600052602260045260246000fd5b600060028204905060018216806200086457607f821691505b6020821081036200087a57620008796200081c565b5b50919050565b60008190508160005260206000209050919050565b60006020601f8301049050919050565b600082821b905092915050565b600060088302620008e47fffffffffffffffffffffffffffffffffffffffffffffffffffffffffffffffff82620008a5565b620008f08683620008a5565b95508019841693508086168417925050509392505050565b6000819050919050565b6000620009336200092d6200092784620006c1565b62000908565b620006c1565b9050919050565b6000819050919050565b6200094f8362000912565b620009676200095e826200093a565b848454620008b2565b825550505050565b600090565b6200097e6200096f565b6200098b81848462000944565b505050565b5b81811015620009b357620009a760008262000974565b60018101905062000991565b5050565b601f82111562000a0257620009cc8162000880565b620009d78462000895565b81016020851015620009e7578190505b620009ff620009f68562000895565b83018262000990565b50505b505050565b600082821c905092915050565b600062000a276000198460080262000a07565b1980831691505092915050565b600062000a42838362000a14565b9150826002028217905092915050565b62000a5d8262000811565b67ffffffffffffffff81111562000a795762000a786200055d565b5b62000a8582546200084b565b62000a92828285620009b7565b600060209050601f83116001811462000aca576000841562000ab5578287015190505b62000ac1858262000a34565b86555062000b31565b601f19841662000ada8662000880565b60005b8281101562000b045784890151825560018201915060208501945060208101905062000add565b8683101562000b24578489015162000b20601f89168262000a14565b8355505b6001600288020188555050505b505050505050565b7f4e487b7100000000000000000000000000000000000000000000000000000000600052601160045260246000fd5b60008160011c9050919050565b6000808291508390505b600185111562000bc75780860481111562000b9f5762000b9e62000b39565b5b600185161562000baf5780820291505b808102905062000bbf8562000b68565b945062000b7f565b94509492505050565b60008262000be2576001905062000cb5565b8162000bf2576000905062000cb5565b816001811462000c0b576002811462000c165762000c4c565b600191505062000cb5565b60ff84111562000c2b5762000c2a62000b39565b5b8360020a91508482111562000c455762000c4462000b39565b5b5062000cb5565b5060208310610133831016604e8410600b841016171562000c865782820a90508381111562000c805762000c7f62000b39565b5b62000cb5565b62000c95848484600162000b75565b9250905081840481111562000caf5762000cae62000b39565b5b81810290505b9392505050565b600060ff82169050919050565b600062000cd682620006c1565b915062000ce38362000cbc565b925062000d127fffffffffffffffffffffffffffffffffffffffffffffffffffffffffffffffff848462000bd0565b905092915050565b600062000d2782620006c1565b915062000d3483620006c1565b9250817fffffffffffffffffffffffffffffffffffffffffffffffffffffffffffffffff048311821515161562000d705762000d6f62000b39565b5b828202905092915050565b600082825260208201905092915050565b7f45524332303a206d696e7420746f20746865207a65726f206164647265737300600082015250565b600062000dc4601f8362000d7b565b915062000dd18262000d8c565b602082019050919050565b6000602082019050818103600083015262000df78162000db5565b9050919050565b600062000e0b82620006c1565b915062000e1883620006c1565b925082820190508082111562000e335762000e3262000b39565b5b92915050565b62000e4481620006c1565b82525050565b600060208201905062000e61600083018462000e39565b92915050565b7f4f776e61626c653a206e6577206f776e657220697320746865207a65726f206160008201527f6464726573730000000000000000000000000000000000000000000000000000602082015250565b600062000ec560268362000d7b565b915062000ed28262000e67565b604082019050919050565b6000602082019050818103600083015262000ef88162000eb6565b9050919050565b7f4f776e61626c653a2063616c6c6572206973206e6f7420746865206f776e6572600082015250565b600062000f3760208362000d7b565b915062000f448262000eff565b602082019050919050565b6000602082019050818103600083015262000f6a8162000f28565b9050919050565b7f5061757361626c653a2070617573656400000000000000000000000000000000600082015250565b600062000fa960108362000d7b565b915062000fb68262000f71565b602082019050919050565b6000602082019050818103600083015262000fdc8162000f9a565b9050919050565b6118b88062000ff36000396000f3fe608060405234801561001057600080fd5b506004361061010b5760003560e01c806370a08231116100a257806395d89b411161007157806395d89b4114610284578063a457c2d7146102a2578063a9059cbb146102d2578063dd62ed3e14610302578063f2fde38b146103325761010b565b806370a0823114610222578063715018a6146102525780638456cb591461025c5780638da5cb5b146102665761010b565b8063313ce567116100de578063313ce567146101ac57806339509351146101ca5780633f4ba83a146101fa5780635c975abb146102045761010b565b806306fdde0314610110578063095ea7b31461012e57806318160ddd1461015e57806323b872dd1461017c575b600080fd5b61011861034e565b6040516101259190610f95565b60405180910390f35b61014860048036038101906101439190611050565b6103e0565b60405161015591906110ab565b60405180910390f35b610166610403565b60405161017391906110d5565b60405180910390f35b610196600480360381019061019191906110f0565b61040d565b6040516101a391906110ab565b60405180910390f35b6101b461043c565b6040516101c1919061115f565b60405180910390f35b6101e460048036038101906101df9190611050565b610445565b6040516101f191906110ab565b60405180910390f35b61020261047c565b005b61020c61048e565b60405161021991906110ab565b60405180910390f35b61023c6004803603810190610237919061117a565b6104a5565b60405161024991906110d5565b60405180910390f35b61025a6104ed565b005b610264610501565b005b61026e610513565b60405161027b91906111b6565b60405180910390f35b61028c61053d565b6040516102999190610f95565b60405180910390f35b6102bc60048036038101906102b79190611050565b6105cf565b6040516102c991906110ab565b60405180910390f35b6102ec60048036038101906102e79190611050565b610646565b6040516102f991906110ab565b60405180910390f35b61031c600480360381019061031791906111d1565b610669565b60405161032991906110d5565b60405180910390f35b61034c6004803603810190610347919061117a565b6106f0565b005b60606003805461035d90611240565b80601f016020809104026020016040519081016040528092919081815260200182805461038990611240565b80156103d65780601f106103ab576101008083540402835291602001916103d6565b820191906000526020600020905b8154815290600101906020018083116103b957829003601f168201915b5050505050905090565b6000806103eb610778565b90506103f8818585610780565b600191505092915050565b6000600254905090565b600080610418610778565b9050610425858285610949565b6104308585856109d5565b60019150509392505050565b60006012905090565b600080610450610778565b90506104718185856104628589610669565b61046c91906112a0565b610780565b600191505092915050565b610484610c4b565b61048c610cc9565b565b6000600560009054906101000a900460ff16905090565b60008060008373ffffffffffffffffffffffffffffffffffffffff1673ffffffffffffffffffffffffffffffffffffffff168152602001908152602001600020549050919050565b6104f5610c4b565b6104ff6000610d2c565b565b610509610c4b565b610511610df2565b565b6000600560019054906101000a900473ffffffffffffffffffffffffffffffffffffffff16905090565b60606004805461054c90611240565b80601f016020809104026020016040519081016040528092919081815260200182805461057890611240565b80156105c55780601f1061059a576101008083540402835291602001916105c5565b820191906000526020600020905b8154815290600101906020018083116105a857829003601f168201915b5050505050905090565b6000806105da610778565b905060006105e88286610669565b90508381101561062d576040517f08c379a000000000000000000000000000000000000000000000000000000000815260040161062490611346565b60405180910390fd5b61063a8286868403610780565b60019250505092915050565b600080610651610778565b905061065e8185856109d5565b600191505092915050565b6000600160008473ffffffffffffffffffffffffffffffffffffffff1673ffffffffffffffffffffffffffffffffffffffff16815260200190815260200160002060008373ffffffffffffffffffffffffffffffffffffffff1673ffffffffffffffffffffffffffffffffffffffff16815260200190815260200160002054905092915050565b6106f8610c4b565b600073ffffffffffffffffffffffffffffffffffffffff168173ffffffffffffffffffffffffffffffffffffffff1603610767576040517f08c379a000000000000000000000000000000000000000000000000000000000815260040161075e906113d8565b60405180910390fd5b61077081610d2c565b50565b505050565b600033905090565b600073ffffffffffffffffffffffffffffffffffffffff168373ffffffffffffffffffffffffffffffffffffffff16036107ef576040517f08c379a00000000000000000000000000000000000000000000000000000000081526004016107e69061146a565b60405180910390fd5b600073ffffffffffffffffffffffffffffffffffffffff168273ffffffffffffffffffffffffffffffffffffffff160361085e576040517f08c379a0000000000000000000000000000000000000000000000000000000008152600401610855906114fc565b60405180910390fd5b80600160008573ffffffffffffffffffffffffffffffffffffffff1673ffffffffffffffffffffffffffffffffffffffff16815260200190815260200160002060008473ffffffffffffffffffffffffffffffffffffffff1673ffffffffffffffffffffffffffffffffffffffff168152602001908152602001600020819055508173ffffffffffffffffffffffffffffffffffffffff168373ffffffffffffffffffffffffffffffffffffffff167f8c5be1e5ebec7d5bd14f71427d1e84f3dd0314c0f7b2291e5b200ac8c7c3b9258360405161093c91906110d5565b60405180910390a3505050565b60006109558484610669565b90507fffffffffffffffffffffffffffffffffffffffffffffffffffffffffffffffff81146109cf57818110156109c1576040517f08c379a00000000000000000000000000000000000000000000000000000000081526004016109b890611568565b60405180910390fd5b6109ce8484848403610780565b5b50505050565b600073ffffffffffffffffffffffffffffffffffffffff168373ffffffffffffffffffffffffffffffffffffffff1603610a44576040517f08c379a0000000000000000000000000000000000000000000000000000000008152600401610a3b906115fa565b60405180910390fd5b600073ffffffffffffffffffffffffffffffffffffffff168273ffffffffffffffffffffffffffffffffffffffff1603610ab3576040517f08c379a0000000000000000000000000000000000000000000000000000000008152600401610aaa9061168c565b60405180910390fd5b610abe838383610e55565b60008060008573ffffffffffffffffffffffffffffffffffffffff1673ffffffffffffffffffffffffffffffffffffffff16815260200190815260200160002054905081811015610b44576040517f08c379a0000000000000000000000000000000000000000000000000000000008152600401610b3b9061171e565b60405180910390fd5b8181036000808673ffffffffffffffffffffffffffffffffffffffff1673ffffffffffffffffffffffffffffffffffffffff16815260200190815260200160002081905550816000808573ffffffffffffffffffffffffffffffffffffffff1673ffffffffffffffffffffffffffffffffffffffff168152602001908152602001600020600082825401925050819055508273ffffffffffffffffffffffffffffffffffffffff168473ffffffffffffffffffffffffffffffffffffffff167fddf252ad1be2c89b69c2b068fc378daa952ba7f163c4a11628f55a4df523b3ef84604051610c3291906110d5565b60405180910390a3610c45848484610e6d565b50505050565b610c53610778565b73ffffffffffffffffffffffffffffffffffffffff16610c71610513565b73ffffffffffffffffffffffffffffffffffffffff1614610cc7576040517f08c379a0000000000000000000000000000000000000000000000000000000008152600401610cbe9061178a565b60405180910390fd5b565b610cd1610e72565b6000600560006101000a81548160ff0219169083151502179055507f5db9ee0a495bf2e6ff9c91a7834c1ba4fdd244a5e8aa4e537bd38aeae4b073aa610d15610778565b604051610d2291906111b6565b60405180910390a1565b6000600560019054906101000a900473ffffffffffffffffffffffffffffffffffffffff16905081600560016101000a81548173ffffffffffffffffffffffffffffffffffffffff021916908373ffffffffffffffffffffffffffffffffffffffff1602179055508173ffffffffffffffffffffffffffffffffffffffff168173ffffffffffffffffffffffffffffffffffffffff167f8be0079c531659141344cd1fd0a4f28419497f9722a3daafe3b4186f6b6457e060405160405180910390a35050565b610dfa610ebb565b6001600560006101000a81548160ff0219169083151502179055507f62e78cea01bee320cd4e420270b5ea74000d11b0c9f74754ebdbfc544b05a258610e3e610778565b604051610e4b91906111b6565b60405180910390a1565b610e5d610ebb565b610e68838383610773565b505050565b505050565b610e7a61048e565b610eb9576040517f08c379a0000000000000000000000000000000000000000000000000000000008152600401610eb0906117f6565b60405180910390fd5b565b610ec361048e565b15610f03576040517f08c379a0000000000000000000000000000000000000000000000000000000008152600401610efa90611862565b60405180910390fd5b565b600081519050919050565b600082825260208201905092915050565b60005b83811015610f3f578082015181840152602081019050610f24565b60008484015250505050565b6000601f19601f8301169050919050565b6000610f6782610f05565b610f718185610f10565b9350610f81818560208601610f21565b610f8a81610f4b565b840191505092915050565b60006020820190508181036000830152610faf8184610f5c565b905092915050565b600080fd5b600073ffffffffffffffffffffffffffffffffffffffff82169050919050565b6000610fe782610fbc565b9050919050565b610ff781610fdc565b811461100257600080fd5b50565b60008135905061101481610fee565b92915050565b6000819050919050565b61102d8161101a565b811461103857600080fd5b50565b60008135905061104a81611024565b92915050565b6000806040838503121561106757611066610fb7565b5b600061107585828601611005565b92505060206110868582860161103b565b9150509250929050565b60008115159050919050565b6110a581611090565b82525050565b60006020820190506110c0600083018461109c565b92915050565b6110cf8161101a565b82525050565b60006020820190506110ea60008301846110c6565b92915050565b60008060006060848603121561110957611108610fb7565b5b600061111786828701611005565b935050602061112886828701611005565b92505060406111398682870161103b565b9150509250925092565b600060ff82169050919050565b61115981611143565b82525050565b60006020820190506111746000830184611150565b92915050565b6000602082840312156111905761118f610fb7565b5b600061119e84828501611005565b91505092915050565b6111b081610fdc565b82525050565b60006020820190506111cb60008301846111a7565b92915050565b600080604083850312156111e8576111e7610fb7565b5b60006111f685828601611005565b925050602061120785828601611005565b9150509250929050565b7f4e487b7100000000000000000000000000000000000000000000000000000000600052602260045260246000fd5b6000600282049050600182168061125857607f821691505b60208210810361126b5761126a611211565b5b50919050565b7f4e487b7100000000000000000000000000000000000000000000000000000000600052601160045260246000fd5b60006112ab8261101a565b91506112b68361101a565b92508282019050808211156112ce576112cd611271565b5b92915050565b7f45524332303a2064656372656173656420616c6c6f77616e63652062656c6f7760008201527f207a65726f000000000000000000000000000000000000000000000000000000602082015250565b6000611330602583610f10565b915061133b826112d4565b604082019050919050565b6000602082019050818103600083015261135f81611323565b9050919050565b7f4f776e61626c653a206e6577206f776e657220697320746865207a65726f206160008201527f6464726573730000000000000000000000000000000000000000000000000000602082015250565b60006113c2602683610f10565b91506113cd82611366565b604082019050919050565b600060208201905081810360008301526113f1816113b5565b9050919050565b7f45524332303a20617070726f76652066726f6d20746865207a65726f2061646460008201527f7265737300000000000000000000000000000000000000000000000000000000602082015250565b6000611454602483610f10565b915061145f826113f8565b604082019050919050565b6000602082019050818103600083015261148381611447565b9050919050565b7f45524332303a20617070726f766520746f20746865207a65726f20616464726560008201527f7373000000000000000000000000000000000000000000000000000000000000602082015250565b60006114e6602283610f10565b91506114f18261148a565b604082019050919050565b60006020820190508181036000830152611515816114d9565b9050919050565b7f45524332303a20696e73756666696369656e7420616c6c6f77616e6365000000600082015250565b6000611552601d83610f10565b915061155d8261151c565b602082019050919050565b6000602082019050818103600083015261158181611545565b9050919050565b7f45524332303a207472616e736665722066726f6d20746865207a65726f20616460008201527f6472657373000000000000000000000000000000000000000000000000000000602082015250565b60006115e4602583610f10565b91506115ef82611588565b604082019050919050565b60006020820190508181036000830152611613816115d7565b9050919050565b7f45524332303a207472616e7366657220746f20746865207a65726f206164647260008201527f6573730000000000000000000000000000000000000000000000000000000000602082015250565b6000611676602383610f10565b91506116818261161a565b604082019050919050565b600060208201905081810360008301526116a581611669565b9050919050565b7f45524332303a207472616e7366657220616d6f756e742065786365656473206260008201527f616c616e63650000000000000000000000000000000000000000000000000000602082015250565b6000611708602683610f10565b9150611713826116ac565b604082019050919050565b60006020820190508181036000830152611737816116fb565b9050919050565b7f4f776e61626c653a2063616c6c6572206973206e6f7420746865206f776e6572600082015250565b6000611774602083610f10565b915061177f8261173e565b602082019050919050565b600060208201905081810360008301526117a381611767565b9050919050565b7f5061757361626c653a206e6f7420706175736564000000000000000000000000600082015250565b60006117e0601483610f10565b91506117eb826117aa565b602082019050919050565b6000602082019050818103600083015261180f816117d3565b9050919050565b7f5061757361626c653a2070617573656400000000000000000000000000000000600082015250565b600061184c601083610f10565b915061185782611816565b602082019050919050565b6000602082019050818103600083015261187b8161183f565b905091905056fea2646970667358221220b816d24506ee4204c66a2a2d66b48b25bd9a9c42e4565b2814d030a1e8af6a1464736f6c63430008100033",
  "immutableReferences": {},
  "source": "// SPDX-License-Identifier: MIT\npragma solidity ^0.8.9;\n\nimport \"@openzeppelin/contracts/token/ERC20/ERC20.sol\";\nimport \"@openzeppelin/contracts/security/Pausable.sol\";\nimport \"@openzeppelin/contracts/access/Ownable.sol\";\n\ncontract Erc20FixSupplyPausable is ERC20, Pausable, Ownable {\n    constructor(\n        string memory _name,\n        string memory _ticker,\n        uint256 _supply,\n        address _recipient\n    ) ERC20(_name, _ticker) {\n        _mint(_recipient, _supply * 10**decimals());\n         super.transferOwnership(_recipient);\n    }\n\n    function pause() public onlyOwner {\n        _pause();\n    }\n\n    function unpause() public onlyOwner {\n        _unpause();\n    }\n\n    function _beforeTokenTransfer(address from, address to, uint256 amount)\n        internal\n        whenNotPaused\n        override\n    {\n        super._beforeTokenTransfer(from, to, amount);\n    }\n}\n",
  "sourcePath": "/run/media/luk/storage/Studio Dev/tutorial-react/corso next.js/esercizi/Contract personal-page/contracts/erc20FixSupplyPausable.sol",
  "compiler": {
    "name": "solc",
    "version": "0.8.16+commit.07a7930e.Emscripten.clang"
  },
  "schemaVersion": "3.4.9",
  "updatedAt": "2022-12-06T14:57:15.918Z",
  "devdoc": {
    "kind": "dev",
    "methods": {
      "allowance(address,address)": {
        "details": "See {IERC20-allowance}."
      },
      "approve(address,uint256)": {
        "details": "See {IERC20-approve}. NOTE: If `amount` is the maximum `uint256`, the allowance is not updated on `transferFrom`. This is semantically equivalent to an infinite approval. Requirements: - `spender` cannot be the zero address."
      },
      "balanceOf(address)": {
        "details": "See {IERC20-balanceOf}."
      },
      "decimals()": {
        "details": "Returns the number of decimals used to get its user representation. For example, if `decimals` equals `2`, a balance of `505` tokens should be displayed to a user as `5.05` (`505 / 10 ** 2`). Tokens usually opt for a value of 18, imitating the relationship between Ether and Wei. This is the value {ERC20} uses, unless this function is overridden; NOTE: This information is only used for _display_ purposes: it in no way affects any of the arithmetic of the contract, including {IERC20-balanceOf} and {IERC20-transfer}."
      },
      "decreaseAllowance(address,uint256)": {
        "details": "Atomically decreases the allowance granted to `spender` by the caller. This is an alternative to {approve} that can be used as a mitigation for problems described in {IERC20-approve}. Emits an {Approval} event indicating the updated allowance. Requirements: - `spender` cannot be the zero address. - `spender` must have allowance for the caller of at least `subtractedValue`."
      },
      "increaseAllowance(address,uint256)": {
        "details": "Atomically increases the allowance granted to `spender` by the caller. This is an alternative to {approve} that can be used as a mitigation for problems described in {IERC20-approve}. Emits an {Approval} event indicating the updated allowance. Requirements: - `spender` cannot be the zero address."
      },
      "name()": {
        "details": "Returns the name of the token."
      },
      "owner()": {
        "details": "Returns the address of the current owner."
      },
      "paused()": {
        "details": "Returns true if the contract is paused, and false otherwise."
      },
      "renounceOwnership()": {
        "details": "Leaves the contract without owner. It will not be possible to call `onlyOwner` functions anymore. Can only be called by the current owner. NOTE: Renouncing ownership will leave the contract without an owner, thereby removing any functionality that is only available to the owner."
      },
      "symbol()": {
        "details": "Returns the symbol of the token, usually a shorter version of the name."
      },
      "totalSupply()": {
        "details": "See {IERC20-totalSupply}."
      },
      "transfer(address,uint256)": {
        "details": "See {IERC20-transfer}. Requirements: - `to` cannot be the zero address. - the caller must have a balance of at least `amount`."
      },
      "transferFrom(address,address,uint256)": {
        "details": "See {IERC20-transferFrom}. Emits an {Approval} event indicating the updated allowance. This is not required by the EIP. See the note at the beginning of {ERC20}. NOTE: Does not update the allowance if the current allowance is the maximum `uint256`. Requirements: - `from` and `to` cannot be the zero address. - `from` must have a balance of at least `amount`. - the caller must have allowance for ``from``'s tokens of at least `amount`."
      },
      "transferOwnership(address)": {
        "details": "Transfers ownership of the contract to a new account (`newOwner`). Can only be called by the current owner."
      }
    },
    "version": 1
  },
  "userdoc": {
    "kind": "user",
    "methods": {},
    "version": 1
  }
}