{
  "contractName": "Erc721ProStoURIburnalblePausable",
  "abi": [
    {
      "inputs": [
        {
          "internalType": "string",
          "name": "_name",
          "type": "string"
        },
        {
          "internalType": "string",
          "name": "_ticker",
          "type": "string"
        },
        {
          "internalType": "address",
          "name": "_user",
          "type": "address"
        }
      ],
      "stateMutability": "nonpayable",
      "type": "constructor"
    },
    {
      "anonymous": false,
      "inputs": [
        {
          "indexed": true,
          "internalType": "address",
          "name": "owner",
          "type": "address"
        },
        {
          "indexed": true,
          "internalType": "address",
          "name": "approved",
          "type": "address"
        },
        {
          "indexed": true,
          "internalType": "uint256",
          "name": "tokenId",
          "type": "uint256"
        }
      ],
      "name": "Approval",
      "type": "event"
    },
    {
      "anonymous": false,
      "inputs": [
        {
          "indexed": true,
          "internalType": "address",
          "name": "owner",
          "type": "address"
        },
        {
          "indexed": true,
          "internalType": "address",
          "name": "operator",
          "type": "address"
        },
        {
          "indexed": false,
          "internalType": "bool",
          "name": "approved",
          "type": "bool"
        }
      ],
      "name": "ApprovalForAll",
      "type": "event"
    },
    {
      "anonymous": false,
      "inputs": [
        {
          "indexed": true,
          "internalType": "address",
          "name": "previousOwner",
          "type": "address"
        },
        {
          "indexed": true,
          "internalType": "address",
          "name": "newOwner",
          "type": "address"
        }
      ],
      "name": "OwnershipTransferred",
      "type": "event"
    },
    {
      "anonymous": false,
      "inputs": [
        {
          "indexed": false,
          "internalType": "address",
          "name": "account",
          "type": "address"
        }
      ],
      "name": "Paused",
      "type": "event"
    },
    {
      "anonymous": false,
      "inputs": [
        {
          "indexed": true,
          "internalType": "address",
          "name": "from",
          "type": "address"
        },
        {
          "indexed": true,
          "internalType": "address",
          "name": "to",
          "type": "address"
        },
        {
          "indexed": true,
          "internalType": "uint256",
          "name": "tokenId",
          "type": "uint256"
        }
      ],
      "name": "Transfer",
      "type": "event"
    },
    {
      "anonymous": false,
      "inputs": [
        {
          "indexed": false,
          "internalType": "address",
          "name": "account",
          "type": "address"
        }
      ],
      "name": "Unpaused",
      "type": "event"
    },
    {
      "inputs": [
        {
          "internalType": "address",
          "name": "to",
          "type": "address"
        },
        {
          "internalType": "uint256",
          "name": "tokenId",
          "type": "uint256"
        }
      ],
      "name": "approve",
      "outputs": [],
      "stateMutability": "nonpayable",
      "type": "function"
    },
    {
      "inputs": [
        {
          "internalType": "address",
          "name": "owner",
          "type": "address"
        }
      ],
      "name": "balanceOf",
      "outputs": [
        {
          "internalType": "uint256",
          "name": "",
          "type": "uint256"
        }
      ],
      "stateMutability": "view",
      "type": "function"
    },
    {
      "inputs": [
        {
          "internalType": "uint256",
          "name": "tokenId",
          "type": "uint256"
        }
      ],
      "name": "burn",
      "outputs": [],
      "stateMutability": "nonpayable",
      "type": "function"
    },
    {
      "inputs": [
        {
          "internalType": "uint256",
          "name": "tokenId",
          "type": "uint256"
        }
      ],
      "name": "getApproved",
      "outputs": [
        {
          "internalType": "address",
          "name": "",
          "type": "address"
        }
      ],
      "stateMutability": "view",
      "type": "function"
    },
    {
      "inputs": [
        {
          "internalType": "address",
          "name": "owner",
          "type": "address"
        },
        {
          "internalType": "address",
          "name": "operator",
          "type": "address"
        }
      ],
      "name": "isApprovedForAll",
      "outputs": [
        {
          "internalType": "bool",
          "name": "",
          "type": "bool"
        }
      ],
      "stateMutability": "view",
      "type": "function"
    },
    {
      "inputs": [],
      "name": "name",
      "outputs": [
        {
          "internalType": "string",
          "name": "",
          "type": "string"
        }
      ],
      "stateMutability": "view",
      "type": "function"
    },
    {
      "inputs": [],
      "name": "owner",
      "outputs": [
        {
          "internalType": "address",
          "name": "",
          "type": "address"
        }
      ],
      "stateMutability": "view",
      "type": "function"
    },
    {
      "inputs": [
        {
          "internalType": "uint256",
          "name": "tokenId",
          "type": "uint256"
        }
      ],
      "name": "ownerOf",
      "outputs": [
        {
          "internalType": "address",
          "name": "",
          "type": "address"
        }
      ],
      "stateMutability": "view",
      "type": "function"
    },
    {
      "inputs": [],
      "name": "paused",
      "outputs": [
        {
          "internalType": "bool",
          "name": "",
          "type": "bool"
        }
      ],
      "stateMutability": "view",
      "type": "function"
    },
    {
      "inputs": [],
      "name": "renounceOwnership",
      "outputs": [],
      "stateMutability": "nonpayable",
      "type": "function"
    },
    {
      "inputs": [
        {
          "internalType": "address",
          "name": "from",
          "type": "address"
        },
        {
          "internalType": "address",
          "name": "to",
          "type": "address"
        },
        {
          "internalType": "uint256",
          "name": "tokenId",
          "type": "uint256"
        }
      ],
      "name": "safeTransferFrom",
      "outputs": [],
      "stateMutability": "nonpayable",
      "type": "function"
    },
    {
      "inputs": [
        {
          "internalType": "address",
          "name": "from",
          "type": "address"
        },
        {
          "internalType": "address",
          "name": "to",
          "type": "address"
        },
        {
          "internalType": "uint256",
          "name": "tokenId",
          "type": "uint256"
        },
        {
          "internalType": "bytes",
          "name": "data",
          "type": "bytes"
        }
      ],
      "name": "safeTransferFrom",
      "outputs": [],
      "stateMutability": "nonpayable",
      "type": "function"
    },
    {
      "inputs": [
        {
          "internalType": "address",
          "name": "operator",
          "type": "address"
        },
        {
          "internalType": "bool",
          "name": "approved",
          "type": "bool"
        }
      ],
      "name": "setApprovalForAll",
      "outputs": [],
      "stateMutability": "nonpayable",
      "type": "function"
    },
    {
      "inputs": [
        {
          "internalType": "bytes4",
          "name": "interfaceId",
          "type": "bytes4"
        }
      ],
      "name": "supportsInterface",
      "outputs": [
        {
          "internalType": "bool",
          "name": "",
          "type": "bool"
        }
      ],
      "stateMutability": "view",
      "type": "function"
    },
    {
      "inputs": [],
      "name": "symbol",
      "outputs": [
        {
          "internalType": "string",
          "name": "",
          "type": "string"
        }
      ],
      "stateMutability": "view",
      "type": "function"
    },
    {
      "inputs": [
        {
          "internalType": "address",
          "name": "from",
          "type": "address"
        },
        {
          "internalType": "address",
          "name": "to",
          "type": "address"
        },
        {
          "internalType": "uint256",
          "name": "tokenId",
          "type": "uint256"
        }
      ],
      "name": "transferFrom",
      "outputs": [],
      "stateMutability": "nonpayable",
      "type": "function"
    },
    {
      "inputs": [
        {
          "internalType": "address",
          "name": "newOwner",
          "type": "address"
        }
      ],
      "name": "transferOwnership",
      "outputs": [],
      "stateMutability": "nonpayable",
      "type": "function"
    },
    {
      "inputs": [],
      "name": "pause",
      "outputs": [],
      "stateMutability": "nonpayable",
      "type": "function"
    },
    {
      "inputs": [],
      "name": "unpause",
      "outputs": [],
      "stateMutability": "nonpayable",
      "type": "function"
    },
    {
      "inputs": [
        {
          "internalType": "address",
          "name": "to",
          "type": "address"
        },
        {
          "internalType": "string",
          "name": "uri",
          "type": "string"
        }
      ],
      "name": "safeMint",
      "outputs": [],
      "stateMutability": "nonpayable",
      "type": "function"
    },
    {
      "inputs": [
        {
          "internalType": "uint256",
          "name": "tokenId",
          "type": "uint256"
        }
      ],
      "name": "tokenURI",
      "outputs": [
        {
          "internalType": "string",
          "name": "",
          "type": "string"
        }
      ],
      "stateMutability": "view",
      "type": "function"
    }
  ],
  "bytecode": "0x60806040523480156200001157600080fd5b5060405162003f0738038062003f078339818101604052810190620000379190620004cb565b828281600090816200004a9190620007b0565b5080600190816200005c9190620007b0565b5050506000600760006101000a81548160ff0219169083151502179055506200009a6200008e620000b460201b60201c565b620000bc60201b60201c565b620000ab816200018260201b60201c565b505050620009b2565b600033905090565b6000600760019054906101000a900473ffffffffffffffffffffffffffffffffffffffff16905081600760016101000a81548173ffffffffffffffffffffffffffffffffffffffff021916908373ffffffffffffffffffffffffffffffffffffffff1602179055508173ffffffffffffffffffffffffffffffffffffffff168173ffffffffffffffffffffffffffffffffffffffff167f8be0079c531659141344cd1fd0a4f28419497f9722a3daafe3b4186f6b6457e060405160405180910390a35050565b620001926200021860201b60201c565b600073ffffffffffffffffffffffffffffffffffffffff168173ffffffffffffffffffffffffffffffffffffffff160362000204576040517f08c379a0000000000000000000000000000000000000000000000000000000008152600401620001fb906200091e565b60405180910390fd5b6200021581620000bc60201b60201c565b50565b62000228620000b460201b60201c565b73ffffffffffffffffffffffffffffffffffffffff166200024e620002a960201b60201c565b73ffffffffffffffffffffffffffffffffffffffff1614620002a7576040517f08c379a00000000000000000000000000000000000000000000000000000000081526004016200029e9062000990565b60405180910390fd5b565b6000600760019054906101000a900473ffffffffffffffffffffffffffffffffffffffff16905090565b6000604051905090565b600080fd5b600080fd5b600080fd5b600080fd5b6000601f19601f8301169050919050565b7f4e487b7100000000000000000000000000000000000000000000000000000000600052604160045260246000fd5b6200033c82620002f1565b810181811067ffffffffffffffff821117156200035e576200035d62000302565b5b80604052505050565b600062000373620002d3565b905062000381828262000331565b919050565b600067ffffffffffffffff821115620003a457620003a362000302565b5b620003af82620002f1565b9050602081019050919050565b60005b83811015620003dc578082015181840152602081019050620003bf565b60008484015250505050565b6000620003ff620003f98462000386565b62000367565b9050828152602081018484840111156200041e576200041d620002ec565b5b6200042b848285620003bc565b509392505050565b600082601f8301126200044b576200044a620002e7565b5b81516200045d848260208601620003e8565b91505092915050565b600073ffffffffffffffffffffffffffffffffffffffff82169050919050565b6000620004938262000466565b9050919050565b620004a58162000486565b8114620004b157600080fd5b50565b600081519050620004c5816200049a565b92915050565b600080600060608486031215620004e757620004e6620002dd565b5b600084015167ffffffffffffffff811115620005085762000507620002e2565b5b620005168682870162000433565b935050602084015167ffffffffffffffff8111156200053a5762000539620002e2565b5b620005488682870162000433565b92505060406200055b86828701620004b4565b9150509250925092565b600081519050919050565b7f4e487b7100000000000000000000000000000000000000000000000000000000600052602260045260246000fd5b60006002820490506001821680620005b857607f821691505b602082108103620005ce57620005cd62000570565b5b50919050565b60008190508160005260206000209050919050565b60006020601f8301049050919050565b600082821b905092915050565b600060088302620006387fffffffffffffffffffffffffffffffffffffffffffffffffffffffffffffffff82620005f9565b620006448683620005f9565b95508019841693508086168417925050509392505050565b6000819050919050565b6000819050919050565b6000620006916200068b62000685846200065c565b62000666565b6200065c565b9050919050565b6000819050919050565b620006ad8362000670565b620006c5620006bc8262000698565b84845462000606565b825550505050565b600090565b620006dc620006cd565b620006e9818484620006a2565b505050565b5b81811015620007115762000705600082620006d2565b600181019050620006ef565b5050565b601f82111562000760576200072a81620005d4565b6200073584620005e9565b8101602085101562000745578190505b6200075d6200075485620005e9565b830182620006ee565b50505b505050565b600082821c905092915050565b6000620007856000198460080262000765565b1980831691505092915050565b6000620007a0838362000772565b9150826002028217905092915050565b620007bb8262000565565b67ffffffffffffffff811115620007d757620007d662000302565b5b620007e382546200059f565b620007f082828562000715565b600060209050601f83116001811462000828576000841562000813578287015190505b6200081f858262000792565b8655506200088f565b601f1984166200083886620005d4565b60005b8281101562000862578489015182556001820191506020850194506020810190506200083b565b868310156200088257848901516200087e601f89168262000772565b8355505b6001600288020188555050505b505050505050565b600082825260208201905092915050565b7f4f776e61626c653a206e6577206f776e657220697320746865207a65726f206160008201527f6464726573730000000000000000000000000000000000000000000000000000602082015250565b60006200090660268362000897565b91506200091382620008a8565b604082019050919050565b600060208201905081810360008301526200093981620008f7565b9050919050565b7f4f776e61626c653a2063616c6c6572206973206e6f7420746865206f776e6572600082015250565b60006200097860208362000897565b9150620009858262000940565b602082019050919050565b60006020820190508181036000830152620009ab8162000969565b9050919050565b61354580620009c26000396000f3fe608060405234801561001057600080fd5b50600436106101375760003560e01c806370a08231116100b8578063a22cb4651161007c578063a22cb46514610302578063b88d4fde1461031e578063c87b56dd1461033a578063d204c45e1461036a578063e985e9c514610386578063f2fde38b146103b657610137565b806370a0823114610282578063715018a6146102b25780638456cb59146102bc5780638da5cb5b146102c657806395d89b41146102e457610137565b80633f4ba83a116100ff5780633f4ba83a146101f257806342842e0e146101fc57806342966c68146102185780635c975abb146102345780636352211e1461025257610137565b806301ffc9a71461013c57806306fdde031461016c578063081812fc1461018a578063095ea7b3146101ba57806323b872dd146101d6575b600080fd5b610156600480360381019061015191906121c7565b6103d2565b604051610163919061220f565b60405180910390f35b6101746104b4565b60405161018191906122ba565b60405180910390f35b6101a4600480360381019061019f9190612312565b610546565b6040516101b19190612380565b60405180910390f35b6101d460048036038101906101cf91906123c7565b61058c565b005b6101f060048036038101906101eb9190612407565b6106a3565b005b6101fa610703565b005b61021660048036038101906102119190612407565b610715565b005b610232600480360381019061022d9190612312565b610735565b005b61023c610791565b604051610249919061220f565b60405180910390f35b61026c60048036038101906102679190612312565b6107a8565b6040516102799190612380565b60405180910390f35b61029c6004803603810190610297919061245a565b61082e565b6040516102a99190612496565b60405180910390f35b6102ba6108e5565b005b6102c46108f9565b005b6102ce61090b565b6040516102db9190612380565b60405180910390f35b6102ec610935565b6040516102f991906122ba565b60405180910390f35b61031c600480360381019061031791906124dd565b6109c7565b005b61033860048036038101906103339190612652565b6109dd565b005b610354600480360381019061034f9190612312565b610a3f565b60405161036191906122ba565b60405180910390f35b610384600480360381019061037f9190612776565b610a51565b005b6103a0600480360381019061039b91906127d2565b610a8a565b6040516103ad919061220f565b60405180910390f35b6103d060048036038101906103cb919061245a565b610b1e565b005b60007f80ac58cd000000000000000000000000000000000000000000000000000000007bffffffffffffffffffffffffffffffffffffffffffffffffffffffff1916827bffffffffffffffffffffffffffffffffffffffffffffffffffffffff1916148061049d57507f5b5e139f000000000000000000000000000000000000000000000000000000007bffffffffffffffffffffffffffffffffffffffffffffffffffffffff1916827bffffffffffffffffffffffffffffffffffffffffffffffffffffffff1916145b806104ad57506104ac82610ba1565b5b9050919050565b6060600080546104c390612841565b80601f01602080910402602001604051908101604052809291908181526020018280546104ef90612841565b801561053c5780601f106105115761010080835404028352916020019161053c565b820191906000526020600020905b81548152906001019060200180831161051f57829003601f168201915b5050505050905090565b600061055182610c0b565b6004600083815260200190815260200160002060009054906101000a900473ffffffffffffffffffffffffffffffffffffffff169050919050565b6000610597826107a8565b90508073ffffffffffffffffffffffffffffffffffffffff168373ffffffffffffffffffffffffffffffffffffffff1603610607576040517f08c379a00000000000000000000000000000000000000000000000000000000081526004016105fe906128e4565b60405180910390fd5b8073ffffffffffffffffffffffffffffffffffffffff16610626610c56565b73ffffffffffffffffffffffffffffffffffffffff16148061065557506106548161064f610c56565b610a8a565b5b610694576040517f08c379a000000000000000000000000000000000000000000000000000000000815260040161068b90612976565b60405180910390fd5b61069e8383610c5e565b505050565b6106b46106ae610c56565b82610d17565b6106f3576040517f08c379a00000000000000000000000000000000000000000000000000000000081526004016106ea90612a08565b60405180910390fd5b6106fe838383610dac565b505050565b61070b6110a5565b610713611123565b565b610730838383604051806020016040528060008152506109dd565b505050565b610746610740610c56565b82610d17565b610785576040517f08c379a000000000000000000000000000000000000000000000000000000000815260040161077c90612a08565b60405180910390fd5b61078e81611186565b50565b6000600760009054906101000a900460ff16905090565b6000806107b483611192565b9050600073ffffffffffffffffffffffffffffffffffffffff168173ffffffffffffffffffffffffffffffffffffffff1603610825576040517f08c379a000000000000000000000000000000000000000000000000000000000815260040161081c90612a74565b60405180910390fd5b80915050919050565b60008073ffffffffffffffffffffffffffffffffffffffff168273ffffffffffffffffffffffffffffffffffffffff160361089e576040517f08c379a000000000000000000000000000000000000000000000000000000000815260040161089590612b06565b60405180910390fd5b600360008373ffffffffffffffffffffffffffffffffffffffff1673ffffffffffffffffffffffffffffffffffffffff168152602001908152602001600020549050919050565b6108ed6110a5565b6108f760006111cf565b565b6109016110a5565b610909611295565b565b6000600760019054906101000a900473ffffffffffffffffffffffffffffffffffffffff16905090565b60606001805461094490612841565b80601f016020809104026020016040519081016040528092919081815260200182805461097090612841565b80156109bd5780601f10610992576101008083540402835291602001916109bd565b820191906000526020600020905b8154815290600101906020018083116109a057829003601f168201915b5050505050905090565b6109d96109d2610c56565b83836112f8565b5050565b6109ee6109e8610c56565b83610d17565b610a2d576040517f08c379a0000000000000000000000000000000000000000000000000000000008152600401610a2490612a08565b60405180910390fd5b610a3984848484611464565b50505050565b6060610a4a826114c0565b9050919050565b610a596110a5565b6000610a6560086115d2565b9050610a7160086115e0565b610a7b83826115f6565b610a858183611614565b505050565b6000600560008473ffffffffffffffffffffffffffffffffffffffff1673ffffffffffffffffffffffffffffffffffffffff16815260200190815260200160002060008373ffffffffffffffffffffffffffffffffffffffff1673ffffffffffffffffffffffffffffffffffffffff16815260200190815260200160002060009054906101000a900460ff16905092915050565b610b266110a5565b600073ffffffffffffffffffffffffffffffffffffffff168173ffffffffffffffffffffffffffffffffffffffff1603610b95576040517f08c379a0000000000000000000000000000000000000000000000000000000008152600401610b8c90612b98565b60405180910390fd5b610b9e816111cf565b50565b60007f01ffc9a7000000000000000000000000000000000000000000000000000000007bffffffffffffffffffffffffffffffffffffffffffffffffffffffff1916827bffffffffffffffffffffffffffffffffffffffffffffffffffffffff1916149050919050565b610c1481611681565b610c53576040517f08c379a0000000000000000000000000000000000000000000000000000000008152600401610c4a90612a74565b60405180910390fd5b50565b600033905090565b816004600083815260200190815260200160002060006101000a81548173ffffffffffffffffffffffffffffffffffffffff021916908373ffffffffffffffffffffffffffffffffffffffff160217905550808273ffffffffffffffffffffffffffffffffffffffff16610cd1836107a8565b73ffffffffffffffffffffffffffffffffffffffff167f8c5be1e5ebec7d5bd14f71427d1e84f3dd0314c0f7b2291e5b200ac8c7c3b92560405160405180910390a45050565b600080610d23836107a8565b90508073ffffffffffffffffffffffffffffffffffffffff168473ffffffffffffffffffffffffffffffffffffffff161480610d655750610d648185610a8a565b5b80610da357508373ffffffffffffffffffffffffffffffffffffffff16610d8b84610546565b73ffffffffffffffffffffffffffffffffffffffff16145b91505092915050565b8273ffffffffffffffffffffffffffffffffffffffff16610dcc826107a8565b73ffffffffffffffffffffffffffffffffffffffff1614610e22576040517f08c379a0000000000000000000000000000000000000000000000000000000008152600401610e1990612c2a565b60405180910390fd5b600073ffffffffffffffffffffffffffffffffffffffff168273ffffffffffffffffffffffffffffffffffffffff1603610e91576040517f08c379a0000000000000000000000000000000000000000000000000000000008152600401610e8890612cbc565b60405180910390fd5b610e9e83838360016116c2565b8273ffffffffffffffffffffffffffffffffffffffff16610ebe826107a8565b73ffffffffffffffffffffffffffffffffffffffff1614610f14576040517f08c379a0000000000000000000000000000000000000000000000000000000008152600401610f0b90612c2a565b60405180910390fd5b6004600082815260200190815260200160002060006101000a81549073ffffffffffffffffffffffffffffffffffffffff02191690556001600360008573ffffffffffffffffffffffffffffffffffffffff1673ffffffffffffffffffffffffffffffffffffffff168152602001908152602001600020600082825403925050819055506001600360008473ffffffffffffffffffffffffffffffffffffffff1673ffffffffffffffffffffffffffffffffffffffff16815260200190815260200160002060008282540192505081905550816002600083815260200190815260200160002060006101000a81548173ffffffffffffffffffffffffffffffffffffffff021916908373ffffffffffffffffffffffffffffffffffffffff160217905550808273ffffffffffffffffffffffffffffffffffffffff168473ffffffffffffffffffffffffffffffffffffffff167fddf252ad1be2c89b69c2b068fc378daa952ba7f163c4a11628f55a4df523b3ef60405160405180910390a46110a083838360016116dc565b505050565b6110ad610c56565b73ffffffffffffffffffffffffffffffffffffffff166110cb61090b565b73ffffffffffffffffffffffffffffffffffffffff1614611121576040517f08c379a000000000000000000000000000000000000000000000000000000000815260040161111890612d28565b60405180910390fd5b565b61112b6116e2565b6000600760006101000a81548160ff0219169083151502179055507f5db9ee0a495bf2e6ff9c91a7834c1ba4fdd244a5e8aa4e537bd38aeae4b073aa61116f610c56565b60405161117c9190612380565b60405180910390a1565b61118f8161172b565b50565b60006002600083815260200190815260200160002060009054906101000a900473ffffffffffffffffffffffffffffffffffffffff169050919050565b6000600760019054906101000a900473ffffffffffffffffffffffffffffffffffffffff16905081600760016101000a81548173ffffffffffffffffffffffffffffffffffffffff021916908373ffffffffffffffffffffffffffffffffffffffff1602179055508173ffffffffffffffffffffffffffffffffffffffff168173ffffffffffffffffffffffffffffffffffffffff167f8be0079c531659141344cd1fd0a4f28419497f9722a3daafe3b4186f6b6457e060405160405180910390a35050565b61129d61177e565b6001600760006101000a81548160ff0219169083151502179055507f62e78cea01bee320cd4e420270b5ea74000d11b0c9f74754ebdbfc544b05a2586112e1610c56565b6040516112ee9190612380565b60405180910390a1565b8173ffffffffffffffffffffffffffffffffffffffff168373ffffffffffffffffffffffffffffffffffffffff1603611366576040517f08c379a000000000000000000000000000000000000000000000000000000000815260040161135d90612d94565b60405180910390fd5b80600560008573ffffffffffffffffffffffffffffffffffffffff1673ffffffffffffffffffffffffffffffffffffffff16815260200190815260200160002060008473ffffffffffffffffffffffffffffffffffffffff1673ffffffffffffffffffffffffffffffffffffffff16815260200190815260200160002060006101000a81548160ff0219169083151502179055508173ffffffffffffffffffffffffffffffffffffffff168373ffffffffffffffffffffffffffffffffffffffff167f17307eab39ab6107e8899845ad3d59bd9653f200f220920489ca2b5937696c3183604051611457919061220f565b60405180910390a3505050565b61146f848484610dac565b61147b848484846117c8565b6114ba576040517f08c379a00000000000000000000000000000000000000000000000000000000081526004016114b190612e26565b60405180910390fd5b50505050565b60606114cb82610c0b565b60006006600084815260200190815260200160002080546114eb90612841565b80601f016020809104026020016040519081016040528092919081815260200182805461151790612841565b80156115645780601f1061153957610100808354040283529160200191611564565b820191906000526020600020905b81548152906001019060200180831161154757829003601f168201915b50505050509050600061157561194f565b9050600081510361158a5781925050506115cd565b6000825111156115bf5780826040516020016115a7929190612e82565b604051602081830303815290604052925050506115cd565b6115c884611966565b925050505b919050565b600081600001549050919050565b6001816000016000828254019250508190555050565b6116108282604051806020016040528060008152506119ce565b5050565b61161d82611681565b61165c576040517f08c379a000000000000000000000000000000000000000000000000000000000815260040161165390612f18565b60405180910390fd5b8060066000848152602001908152602001600020908161167c91906130e4565b505050565b60008073ffffffffffffffffffffffffffffffffffffffff166116a383611192565b73ffffffffffffffffffffffffffffffffffffffff1614159050919050565b6116ca61177e565b6116d684848484611a29565b50505050565b50505050565b6116ea610791565b611729576040517f08c379a000000000000000000000000000000000000000000000000000000000815260040161172090613202565b60405180910390fd5b565b61173481611b4f565b600060066000838152602001908152602001600020805461175490612841565b90501461177b5760066000828152602001908152602001600020600061177a91906120fe565b5b50565b611786610791565b156117c6576040517f08c379a00000000000000000000000000000000000000000000000000000000081526004016117bd9061326e565b60405180910390fd5b565b60006117e98473ffffffffffffffffffffffffffffffffffffffff16611c9d565b15611942578373ffffffffffffffffffffffffffffffffffffffff1663150b7a02611812610c56565b8786866040518563ffffffff1660e01b815260040161183494939291906132e3565b6020604051808303816000875af192505050801561187057506040513d601f19601f8201168201806040525081019061186d9190613344565b60015b6118f2573d80600081146118a0576040519150601f19603f3d011682016040523d82523d6000602084013e6118a5565b606091505b5060008151036118ea576040517f08c379a00000000000000000000000000000000000000000000000000000000081526004016118e190612e26565b60405180910390fd5b805181602001fd5b63150b7a0260e01b7bffffffffffffffffffffffffffffffffffffffffffffffffffffffff1916817bffffffffffffffffffffffffffffffffffffffffffffffffffffffff191614915050611947565b600190505b949350505050565b606060405180602001604052806000815250905090565b606061197182610c0b565b600061197b61194f565b9050600081511161199b57604051806020016040528060008152506119c6565b806119a584611cc0565b6040516020016119b6929190612e82565b6040516020818303038152906040525b915050919050565b6119d88383611d8e565b6119e560008484846117c8565b611a24576040517f08c379a0000000000000000000000000000000000000000000000000000000008152600401611a1b90612e26565b60405180910390fd5b505050565b6001811115611b4957600073ffffffffffffffffffffffffffffffffffffffff168473ffffffffffffffffffffffffffffffffffffffff1614611abd5780600360008673ffffffffffffffffffffffffffffffffffffffff1673ffffffffffffffffffffffffffffffffffffffff1681526020019081526020016000206000828254611ab591906133a0565b925050819055505b600073ffffffffffffffffffffffffffffffffffffffff168373ffffffffffffffffffffffffffffffffffffffff1614611b485780600360008573ffffffffffffffffffffffffffffffffffffffff1673ffffffffffffffffffffffffffffffffffffffff1681526020019081526020016000206000828254611b4091906133d4565b925050819055505b5b50505050565b6000611b5a826107a8565b9050611b6a8160008460016116c2565b611b73826107a8565b90506004600083815260200190815260200160002060006101000a81549073ffffffffffffffffffffffffffffffffffffffff02191690556001600360008373ffffffffffffffffffffffffffffffffffffffff1673ffffffffffffffffffffffffffffffffffffffff168152602001908152602001600020600082825403925050819055506002600083815260200190815260200160002060006101000a81549073ffffffffffffffffffffffffffffffffffffffff021916905581600073ffffffffffffffffffffffffffffffffffffffff168273ffffffffffffffffffffffffffffffffffffffff167fddf252ad1be2c89b69c2b068fc378daa952ba7f163c4a11628f55a4df523b3ef60405160405180910390a4611c998160008460016116dc565b5050565b6000808273ffffffffffffffffffffffffffffffffffffffff163b119050919050565b606060006001611ccf84611fab565b01905060008167ffffffffffffffff811115611cee57611ced612527565b5b6040519080825280601f01601f191660200182016040528015611d205781602001600182028036833780820191505090505b509050600082602001820190505b600115611d83578080600190039150507f3031323334353637383961626364656600000000000000000000000000000000600a86061a8153600a8581611d7757611d76613408565b5b04945060008503611d2e575b819350505050919050565b600073ffffffffffffffffffffffffffffffffffffffff168273ffffffffffffffffffffffffffffffffffffffff1603611dfd576040517f08c379a0000000000000000000000000000000000000000000000000000000008152600401611df490613483565b60405180910390fd5b611e0681611681565b15611e46576040517f08c379a0000000000000000000000000000000000000000000000000000000008152600401611e3d906134ef565b60405180910390fd5b611e546000838360016116c2565b611e5d81611681565b15611e9d576040517f08c379a0000000000000000000000000000000000000000000000000000000008152600401611e94906134ef565b60405180910390fd5b6001600360008473ffffffffffffffffffffffffffffffffffffffff1673ffffffffffffffffffffffffffffffffffffffff16815260200190815260200160002060008282540192505081905550816002600083815260200190815260200160002060006101000a81548173ffffffffffffffffffffffffffffffffffffffff021916908373ffffffffffffffffffffffffffffffffffffffff160217905550808273ffffffffffffffffffffffffffffffffffffffff16600073ffffffffffffffffffffffffffffffffffffffff167fddf252ad1be2c89b69c2b068fc378daa952ba7f163c4a11628f55a4df523b3ef60405160405180910390a4611fa76000838360016116dc565b5050565b600080600090507a184f03e93ff9f4daa797ed6e38ed64bf6a1f0100000000000000008310612009577a184f03e93ff9f4daa797ed6e38ed64bf6a1f0100000000000000008381611fff57611ffe613408565b5b0492506040810190505b6d04ee2d6d415b85acef81000000008310612046576d04ee2d6d415b85acef8100000000838161203c5761203b613408565b5b0492506020810190505b662386f26fc10000831061207557662386f26fc10000838161206b5761206a613408565b5b0492506010810190505b6305f5e100831061209e576305f5e100838161209457612093613408565b5b0492506008810190505b61271083106120c35761271083816120b9576120b8613408565b5b0492506004810190505b606483106120e657606483816120dc576120db613408565b5b0492506002810190505b600a83106120f5576001810190505b80915050919050565b50805461210a90612841565b6000825580601f1061211c575061213b565b601f01602090049060005260206000209081019061213a919061213e565b5b50565b5b8082111561215757600081600090555060010161213f565b5090565b6000604051905090565b600080fd5b600080fd5b60007fffffffff0000000000000000000000000000000000000000000000000000000082169050919050565b6121a48161216f565b81146121af57600080fd5b50565b6000813590506121c18161219b565b92915050565b6000602082840312156121dd576121dc612165565b5b60006121eb848285016121b2565b91505092915050565b60008115159050919050565b612209816121f4565b82525050565b60006020820190506122246000830184612200565b92915050565b600081519050919050565b600082825260208201905092915050565b60005b83811015612264578082015181840152602081019050612249565b60008484015250505050565b6000601f19601f8301169050919050565b600061228c8261222a565b6122968185612235565b93506122a6818560208601612246565b6122af81612270565b840191505092915050565b600060208201905081810360008301526122d48184612281565b905092915050565b6000819050919050565b6122ef816122dc565b81146122fa57600080fd5b50565b60008135905061230c816122e6565b92915050565b60006020828403121561232857612327612165565b5b6000612336848285016122fd565b91505092915050565b600073ffffffffffffffffffffffffffffffffffffffff82169050919050565b600061236a8261233f565b9050919050565b61237a8161235f565b82525050565b60006020820190506123956000830184612371565b92915050565b6123a48161235f565b81146123af57600080fd5b50565b6000813590506123c18161239b565b92915050565b600080604083850312156123de576123dd612165565b5b60006123ec858286016123b2565b92505060206123fd858286016122fd565b9150509250929050565b6000806000606084860312156124205761241f612165565b5b600061242e868287016123b2565b935050602061243f868287016123b2565b9250506040612450868287016122fd565b9150509250925092565b6000602082840312156124705761246f612165565b5b600061247e848285016123b2565b91505092915050565b612490816122dc565b82525050565b60006020820190506124ab6000830184612487565b92915050565b6124ba816121f4565b81146124c557600080fd5b50565b6000813590506124d7816124b1565b92915050565b600080604083850312156124f4576124f3612165565b5b6000612502858286016123b2565b9250506020612513858286016124c8565b9150509250929050565b600080fd5b600080fd5b7f4e487b7100000000000000000000000000000000000000000000000000000000600052604160045260246000fd5b61255f82612270565b810181811067ffffffffffffffff8211171561257e5761257d612527565b5b80604052505050565b600061259161215b565b905061259d8282612556565b919050565b600067ffffffffffffffff8211156125bd576125bc612527565b5b6125c682612270565b9050602081019050919050565b82818337600083830152505050565b60006125f56125f0846125a2565b612587565b90508281526020810184848401111561261157612610612522565b5b61261c8482856125d3565b509392505050565b600082601f8301126126395761263861251d565b5b81356126498482602086016125e2565b91505092915050565b6000806000806080858703121561266c5761266b612165565b5b600061267a878288016123b2565b945050602061268b878288016123b2565b935050604061269c878288016122fd565b925050606085013567ffffffffffffffff8111156126bd576126bc61216a565b5b6126c987828801612624565b91505092959194509250565b600067ffffffffffffffff8211156126f0576126ef612527565b5b6126f982612270565b9050602081019050919050565b6000612719612714846126d5565b612587565b90508281526020810184848401111561273557612734612522565b5b6127408482856125d3565b509392505050565b600082601f83011261275d5761275c61251d565b5b813561276d848260208601612706565b91505092915050565b6000806040838503121561278d5761278c612165565b5b600061279b858286016123b2565b925050602083013567ffffffffffffffff8111156127bc576127bb61216a565b5b6127c885828601612748565b9150509250929050565b600080604083850312156127e9576127e8612165565b5b60006127f7858286016123b2565b9250506020612808858286016123b2565b9150509250929050565b7f4e487b7100000000000000000000000000000000000000000000000000000000600052602260045260246000fd5b6000600282049050600182168061285957607f821691505b60208210810361286c5761286b612812565b5b50919050565b7f4552433732313a20617070726f76616c20746f2063757272656e74206f776e6560008201527f7200000000000000000000000000000000000000000000000000000000000000602082015250565b60006128ce602183612235565b91506128d982612872565b604082019050919050565b600060208201905081810360008301526128fd816128c1565b9050919050565b7f4552433732313a20617070726f76652063616c6c6572206973206e6f7420746f60008201527f6b656e206f776e6572206f7220617070726f76656420666f7220616c6c000000602082015250565b6000612960603d83612235565b915061296b82612904565b604082019050919050565b6000602082019050818103600083015261298f81612953565b9050919050565b7f4552433732313a2063616c6c6572206973206e6f7420746f6b656e206f776e6560008201527f72206f7220617070726f76656400000000000000000000000000000000000000602082015250565b60006129f2602d83612235565b91506129fd82612996565b604082019050919050565b60006020820190508181036000830152612a21816129e5565b9050919050565b7f4552433732313a20696e76616c696420746f6b656e2049440000000000000000600082015250565b6000612a5e601883612235565b9150612a6982612a28565b602082019050919050565b60006020820190508181036000830152612a8d81612a51565b9050919050565b7f4552433732313a2061646472657373207a65726f206973206e6f74206120766160008201527f6c6964206f776e65720000000000000000000000000000000000000000000000602082015250565b6000612af0602983612235565b9150612afb82612a94565b604082019050919050565b60006020820190508181036000830152612b1f81612ae3565b9050919050565b7f4f776e61626c653a206e6577206f776e657220697320746865207a65726f206160008201527f6464726573730000000000000000000000000000000000000000000000000000602082015250565b6000612b82602683612235565b9150612b8d82612b26565b604082019050919050565b60006020820190508181036000830152612bb181612b75565b9050919050565b7f4552433732313a207472616e736665722066726f6d20696e636f72726563742060008201527f6f776e6572000000000000000000000000000000000000000000000000000000602082015250565b6000612c14602583612235565b9150612c1f82612bb8565b604082019050919050565b60006020820190508181036000830152612c4381612c07565b9050919050565b7f4552433732313a207472616e7366657220746f20746865207a65726f2061646460008201527f7265737300000000000000000000000000000000000000000000000000000000602082015250565b6000612ca6602483612235565b9150612cb182612c4a565b604082019050919050565b60006020820190508181036000830152612cd581612c99565b9050919050565b7f4f776e61626c653a2063616c6c6572206973206e6f7420746865206f776e6572600082015250565b6000612d12602083612235565b9150612d1d82612cdc565b602082019050919050565b60006020820190508181036000830152612d4181612d05565b9050919050565b7f4552433732313a20617070726f766520746f2063616c6c657200000000000000600082015250565b6000612d7e601983612235565b9150612d8982612d48565b602082019050919050565b60006020820190508181036000830152612dad81612d71565b9050919050565b7f4552433732313a207472616e7366657220746f206e6f6e20455243373231526560008201527f63656976657220696d706c656d656e7465720000000000000000000000000000602082015250565b6000612e10603283612235565b9150612e1b82612db4565b604082019050919050565b60006020820190508181036000830152612e3f81612e03565b9050919050565b600081905092915050565b6000612e5c8261222a565b612e668185612e46565b9350612e76818560208601612246565b80840191505092915050565b6000612e8e8285612e51565b9150612e9a8284612e51565b91508190509392505050565b7f45524337323155524953746f726167653a2055524920736574206f66206e6f6e60008201527f6578697374656e7420746f6b656e000000000000000000000000000000000000602082015250565b6000612f02602e83612235565b9150612f0d82612ea6565b604082019050919050565b60006020820190508181036000830152612f3181612ef5565b9050919050565b60008190508160005260206000209050919050565b60006020601f8301049050919050565b600082821b905092915050565b600060088302612f9a7fffffffffffffffffffffffffffffffffffffffffffffffffffffffffffffffff82612f5d565b612fa48683612f5d565b95508019841693508086168417925050509392505050565b6000819050919050565b6000612fe1612fdc612fd7846122dc565b612fbc565b6122dc565b9050919050565b6000819050919050565b612ffb83612fc6565b61300f61300782612fe8565b848454612f6a565b825550505050565b600090565b613024613017565b61302f818484612ff2565b505050565b5b818110156130535761304860008261301c565b600181019050613035565b5050565b601f8211156130985761306981612f38565b61307284612f4d565b81016020851015613081578190505b61309561308d85612f4d565b830182613034565b50505b505050565b600082821c905092915050565b60006130bb6000198460080261309d565b1980831691505092915050565b60006130d483836130aa565b9150826002028217905092915050565b6130ed8261222a565b67ffffffffffffffff81111561310657613105612527565b5b6131108254612841565b61311b828285613057565b600060209050601f83116001811461314e576000841561313c578287015190505b61314685826130c8565b8655506131ae565b601f19841661315c86612f38565b60005b828110156131845784890151825560018201915060208501945060208101905061315f565b868310156131a1578489015161319d601f8916826130aa565b8355505b6001600288020188555050505b505050505050565b7f5061757361626c653a206e6f7420706175736564000000000000000000000000600082015250565b60006131ec601483612235565b91506131f7826131b6565b602082019050919050565b6000602082019050818103600083015261321b816131df565b9050919050565b7f5061757361626c653a2070617573656400000000000000000000000000000000600082015250565b6000613258601083612235565b915061326382613222565b602082019050919050565b600060208201905081810360008301526132878161324b565b9050919050565b600081519050919050565b600082825260208201905092915050565b60006132b58261328e565b6132bf8185613299565b93506132cf818560208601612246565b6132d881612270565b840191505092915050565b60006080820190506132f86000830187612371565b6133056020830186612371565b6133126040830185612487565b818103606083015261332481846132aa565b905095945050505050565b60008151905061333e8161219b565b92915050565b60006020828403121561335a57613359612165565b5b60006133688482850161332f565b91505092915050565b7f4e487b7100000000000000000000000000000000000000000000000000000000600052601160045260246000fd5b60006133ab826122dc565b91506133b6836122dc565b92508282039050818111156133ce576133cd613371565b5b92915050565b60006133df826122dc565b91506133ea836122dc565b925082820190508082111561340257613401613371565b5b92915050565b7f4e487b7100000000000000000000000000000000000000000000000000000000600052601260045260246000fd5b7f4552433732313a206d696e7420746f20746865207a65726f2061646472657373600082015250565b600061346d602083612235565b915061347882613437565b602082019050919050565b6000602082019050818103600083015261349c81613460565b9050919050565b7f4552433732313a20746f6b656e20616c7265616479206d696e74656400000000600082015250565b60006134d9601c83612235565b91506134e4826134a3565b602082019050919050565b60006020820190508181036000830152613508816134cc565b905091905056fea2646970667358221220d2174a64ed5669feb96a9e86f43c72272ba407d6b4eb0b848feafac86b9007c664736f6c63430008100033",
  "immutableReferences": {},
  "source": "// SPDX-License-Identifier: MIT\npragma solidity ^0.8.9;\n\nimport \"@openzeppelin/contracts/token/ERC721/ERC721.sol\";\nimport \"@openzeppelin/contracts/token/ERC721/extensions/ERC721URIStorage.sol\";\nimport \"@openzeppelin/contracts/security/Pausable.sol\";\nimport \"@openzeppelin/contracts/access/Ownable.sol\";\nimport \"@openzeppelin/contracts/token/ERC721/extensions/ERC721Burnable.sol\";\nimport \"@openzeppelin/contracts/utils/Counters.sol\";\n\ncontract Erc721ProStoURIburnalblePausable is ERC721, ERC721URIStorage, Pausable, Ownable, ERC721Burnable {\n    using Counters for Counters.Counter;\n\n    Counters.Counter private _tokenIdCounter;\n\n   constructor(string memory _name, string memory _ticker,address _user) ERC721(_name,_ticker) {\n    transferOwnership(_user);\n   }\n\n    function pause() public onlyOwner {\n        _pause();\n    }\n\n    function unpause() public onlyOwner {\n        _unpause();\n    }\n\n    function safeMint(address to, string memory uri) public onlyOwner {\n        uint256 tokenId = _tokenIdCounter.current();\n        _tokenIdCounter.increment();\n        _safeMint(to, tokenId);\n        _setTokenURI(tokenId, uri);\n    }\n\n    function _beforeTokenTransfer(address from, address to, uint256 tokenId, uint256 batchSize)\n        internal\n        whenNotPaused\n        override\n    {\n        super._beforeTokenTransfer(from, to, tokenId, batchSize);\n    }\n\n    // The following functions are overrides required by Solidity.\n\n    function _burn(uint256 tokenId) internal override(ERC721, ERC721URIStorage) {\n        super._burn(tokenId);\n    }\n\n    function tokenURI(uint256 tokenId)\n        public\n        view\n        override(ERC721, ERC721URIStorage)\n        returns (string memory)\n    {\n        return super.tokenURI(tokenId);\n    }\n}\n",
  "sourcePath": "/run/media/luk/storage/Studio Dev/tutorial-react/corso next.js/esercizi/Contract personal-page/contracts/NFTMintableProgressiveStorageURIBurnablePausable.sol",
  "compiler": {
    "name": "solc",
    "version": "0.8.16+commit.07a7930e.Emscripten.clang"
  },
  "schemaVersion": "3.4.9",
  "updatedAt": "2022-12-06T15:33:58.138Z",
  "devdoc": {
    "kind": "dev",
    "methods": {
      "approve(address,uint256)": {
        "details": "See {IERC721-approve}."
      },
      "balanceOf(address)": {
        "details": "See {IERC721-balanceOf}."
      },
      "burn(uint256)": {
        "details": "Burns `tokenId`. See {ERC721-_burn}. Requirements: - The caller must own `tokenId` or be an approved operator."
      },
      "getApproved(uint256)": {
        "details": "See {IERC721-getApproved}."
      },
      "isApprovedForAll(address,address)": {
        "details": "See {IERC721-isApprovedForAll}."
      },
      "name()": {
        "details": "See {IERC721Metadata-name}."
      },
      "owner()": {
        "details": "Returns the address of the current owner."
      },
      "ownerOf(uint256)": {
        "details": "See {IERC721-ownerOf}."
      },
      "paused()": {
        "details": "Returns true if the contract is paused, and false otherwise."
      },
      "renounceOwnership()": {
        "details": "Leaves the contract without owner. It will not be possible to call `onlyOwner` functions anymore. Can only be called by the current owner. NOTE: Renouncing ownership will leave the contract without an owner, thereby removing any functionality that is only available to the owner."
      },
      "safeTransferFrom(address,address,uint256)": {
        "details": "See {IERC721-safeTransferFrom}."
      },
      "safeTransferFrom(address,address,uint256,bytes)": {
        "details": "See {IERC721-safeTransferFrom}."
      },
      "setApprovalForAll(address,bool)": {
        "details": "See {IERC721-setApprovalForAll}."
      },
      "supportsInterface(bytes4)": {
        "details": "See {IERC165-supportsInterface}."
      },
      "symbol()": {
        "details": "See {IERC721Metadata-symbol}."
      },
      "transferFrom(address,address,uint256)": {
        "details": "See {IERC721-transferFrom}."
      },
      "transferOwnership(address)": {
        "details": "Transfers ownership of the contract to a new account (`newOwner`). Can only be called by the current owner."
      }
    },
    "version": 1
  },
  "userdoc": {
    "kind": "user",
    "methods": {},
    "version": 1
  }
}